{
  "_format": "hh-sol-artifact-1",
  "contractName": "FederatedLearning",
  "sourceName": "contracts/FederatedLearning.sol",
  "abi": [
    {
      "inputs": [
        {
          "internalType": "string",
          "name": "_initialModelCID",
          "type": "string"
        },
        {
          "internalType": "uint256",
          "name": "_ClientNumThres",
          "type": "uint256"
        },
        {
          "internalType": "uint256",
          "name": "_ClientWithRightNum",
          "type": "uint256"
        },
        {
          "internalType": "uint256",
          "name": "_VotableModelNum",
          "type": "uint256"
        },
        {
          "internalType": "uint256",
          "name": "_VoteNum",
          "type": "uint256"
        }
      ],
      "stateMutability": "nonpayable",
      "type": "constructor"
    },
    {
      "anonymous": false,
      "inputs": [
        {
          "indexed": true,
          "internalType": "address",
          "name": "owner",
          "type": "address"
        },
        {
          "indexed": true,
          "internalType": "address",
          "name": "spender",
          "type": "address"
        },
        {
          "indexed": false,
          "internalType": "uint256",
          "name": "value",
          "type": "uint256"
        }
      ],
      "name": "Approval",
      "type": "event"
    },
    {
      "anonymous": false,
      "inputs": [
        {
          "indexed": true,
          "internalType": "address",
          "name": "client",
          "type": "address"
        },
        {
          "indexed": true,
          "internalType": "uint256",
          "name": "latestModelIndex",
          "type": "uint256"
        }
      ],
      "name": "LearningRightGranted",
      "type": "event"
    },
    {
      "anonymous": false,
      "inputs": [
        {
          "indexed": true,
          "internalType": "address",
          "name": "from",
          "type": "address"
        },
        {
          "indexed": true,
          "internalType": "address",
          "name": "to",
          "type": "address"
        },
        {
          "indexed": false,
          "internalType": "uint256",
          "name": "value",
          "type": "uint256"
        }
      ],
      "name": "Transfer",
      "type": "event"
    },
    {
      "inputs": [],
      "name": "ClientNumThres",
      "outputs": [
        {
          "internalType": "uint256",
          "name": "",
          "type": "uint256"
        }
      ],
      "stateMutability": "view",
      "type": "function"
    },
    {
      "inputs": [],
      "name": "ClientWithRightNum",
      "outputs": [
        {
          "internalType": "uint256",
          "name": "",
          "type": "uint256"
        }
      ],
      "stateMutability": "view",
      "type": "function"
    },
    {
      "inputs": [],
      "name": "VotableModelNum",
      "outputs": [
        {
          "internalType": "uint256",
          "name": "",
          "type": "uint256"
        }
      ],
      "stateMutability": "view",
      "type": "function"
    },
    {
      "inputs": [],
      "name": "VoteNum",
      "outputs": [
        {
          "internalType": "uint256",
          "name": "",
          "type": "uint256"
        }
      ],
      "stateMutability": "view",
      "type": "function"
    },
    {
      "inputs": [
        {
          "internalType": "address",
          "name": "owner",
          "type": "address"
        },
        {
          "internalType": "address",
          "name": "spender",
          "type": "address"
        }
      ],
      "name": "allowance",
      "outputs": [
        {
          "internalType": "uint256",
          "name": "",
          "type": "uint256"
        }
      ],
      "stateMutability": "view",
      "type": "function"
    },
    {
      "inputs": [
        {
          "internalType": "address",
          "name": "spender",
          "type": "address"
        },
        {
          "internalType": "uint256",
          "name": "amount",
          "type": "uint256"
        }
      ],
      "name": "approve",
      "outputs": [
        {
          "internalType": "bool",
          "name": "",
          "type": "bool"
        }
      ],
      "stateMutability": "nonpayable",
      "type": "function"
    },
    {
      "inputs": [
        {
          "internalType": "address",
          "name": "account",
          "type": "address"
        }
      ],
      "name": "balanceOf",
      "outputs": [
        {
          "internalType": "uint256",
          "name": "",
          "type": "uint256"
        }
      ],
      "stateMutability": "view",
      "type": "function"
    },
    {
      "inputs": [
        {
          "internalType": "address",
          "name": "",
          "type": "address"
        }
      ],
      "name": "clientInfo",
      "outputs": [
        {
          "internalType": "uint256",
          "name": "index",
          "type": "uint256"
        },
        {
          "internalType": "bool",
          "name": "registered",
          "type": "bool"
        },
        {
          "internalType": "bool",
          "name": "hasLearningRight",
          "type": "bool"
        },
        {
          "internalType": "uint256",
          "name": "latestModelIndex",
          "type": "uint256"
        }
      ],
      "stateMutability": "view",
      "type": "function"
    },
    {
      "inputs": [
        {
          "internalType": "uint256",
          "name": "",
          "type": "uint256"
        }
      ],
      "name": "clients",
      "outputs": [
        {
          "internalType": "address",
          "name": "",
          "type": "address"
        }
      ],
      "stateMutability": "view",
      "type": "function"
    },
    {
      "inputs": [],
      "name": "decimals",
      "outputs": [
        {
          "internalType": "uint8",
          "name": "",
          "type": "uint8"
        }
      ],
      "stateMutability": "view",
      "type": "function"
    },
    {
      "inputs": [
        {
          "internalType": "address",
          "name": "spender",
          "type": "address"
        },
        {
          "internalType": "uint256",
          "name": "subtractedValue",
          "type": "uint256"
        }
      ],
      "name": "decreaseAllowance",
      "outputs": [
        {
          "internalType": "bool",
          "name": "",
          "type": "bool"
        }
      ],
      "stateMutability": "nonpayable",
      "type": "function"
    },
    {
      "inputs": [
        {
          "internalType": "string",
          "name": "",
          "type": "string"
        }
      ],
      "name": "existingModelCIDs",
      "outputs": [
        {
          "internalType": "bool",
          "name": "",
          "type": "bool"
        }
      ],
      "stateMutability": "view",
      "type": "function"
    },
    {
      "inputs": [
        {
          "internalType": "address",
          "name": "spender",
          "type": "address"
        },
        {
          "internalType": "uint256",
          "name": "addedValue",
          "type": "uint256"
        }
      ],
      "name": "increaseAllowance",
      "outputs": [
        {
          "internalType": "bool",
          "name": "",
          "type": "bool"
        }
      ],
      "stateMutability": "nonpayable",
      "type": "function"
    },
    {
      "inputs": [],
      "name": "initialModelCID",
      "outputs": [
        {
          "internalType": "string",
          "name": "",
          "type": "string"
        }
      ],
      "stateMutability": "view",
      "type": "function"
    },
    {
      "inputs": [
        {
          "internalType": "uint256",
          "name": "",
          "type": "uint256"
        }
      ],
      "name": "models",
      "outputs": [
        {
          "internalType": "string",
          "name": "CID",
          "type": "string"
        },
        {
          "internalType": "uint256",
          "name": "authorIndex",
          "type": "uint256"
        }
      ],
      "stateMutability": "view",
      "type": "function"
    },
    {
      "inputs": [],
      "name": "name",
      "outputs": [
        {
          "internalType": "string",
          "name": "",
          "type": "string"
        }
      ],
      "stateMutability": "view",
      "type": "function"
    },
    {
      "inputs": [],
      "name": "register",
      "outputs": [],
      "stateMutability": "nonpayable",
      "type": "function"
    },
    {
      "inputs": [
        {
          "internalType": "string",
          "name": "_newModelCID",
          "type": "string"
        },
        {
          "internalType": "string[]",
          "name": "_votedModelCIDs",
          "type": "string[]"
        }
      ],
      "name": "submitModel",
      "outputs": [],
      "stateMutability": "nonpayable",
      "type": "function"
    },
    {
      "inputs": [],
      "name": "symbol",
      "outputs": [
        {
          "internalType": "string",
          "name": "",
          "type": "string"
        }
      ],
      "stateMutability": "view",
      "type": "function"
    },
    {
      "inputs": [],
      "name": "totalSupply",
      "outputs": [
        {
          "internalType": "uint256",
          "name": "",
          "type": "uint256"
        }
      ],
      "stateMutability": "view",
      "type": "function"
    },
    {
      "inputs": [
        {
          "internalType": "address",
          "name": "to",
          "type": "address"
        },
        {
          "internalType": "uint256",
          "name": "amount",
          "type": "uint256"
        }
      ],
      "name": "transfer",
      "outputs": [
        {
          "internalType": "bool",
          "name": "",
          "type": "bool"
        }
      ],
      "stateMutability": "nonpayable",
      "type": "function"
    },
    {
      "inputs": [
        {
          "internalType": "address",
          "name": "from",
          "type": "address"
        },
        {
          "internalType": "address",
          "name": "to",
          "type": "address"
        },
        {
          "internalType": "uint256",
          "name": "amount",
          "type": "uint256"
        }
      ],
      "name": "transferFrom",
      "outputs": [
        {
          "internalType": "bool",
          "name": "",
          "type": "bool"
        }
      ],
      "stateMutability": "nonpayable",
      "type": "function"
    }
  ],
  "bytecode": "0x60806040523480156200001157600080fd5b5060405162003a3438038062003a348339818101604052810190620000379190620002d0565b6040518060400160405280601881526020017f466564657261746564204c6561726e696e6720546f6b656e00000000000000008152506040518060400160405280600381526020017f464c5400000000000000000000000000000000000000000000000000000000008152508160039081620000b49190620005b8565b508060049081620000c69190620005b8565b5050508460099081620000da9190620005b8565b508360058190555082600681905550816007819055508060088190555050505050506200069f565b6000604051905090565b600080fd5b600080fd5b600080fd5b600080fd5b6000601f19601f8301169050919050565b7f4e487b7100000000000000000000000000000000000000000000000000000000600052604160045260246000fd5b6200016b8262000120565b810181811067ffffffffffffffff821117156200018d576200018c62000131565b5b80604052505050565b6000620001a262000102565b9050620001b0828262000160565b919050565b600067ffffffffffffffff821115620001d357620001d262000131565b5b620001de8262000120565b9050602081019050919050565b60005b838110156200020b578082015181840152602081019050620001ee565b60008484015250505050565b60006200022e6200022884620001b5565b62000196565b9050828152602081018484840111156200024d576200024c6200011b565b5b6200025a848285620001eb565b509392505050565b600082601f8301126200027a576200027962000116565b5b81516200028c84826020860162000217565b91505092915050565b6000819050919050565b620002aa8162000295565b8114620002b657600080fd5b50565b600081519050620002ca816200029f565b92915050565b600080600080600060a08688031215620002ef57620002ee6200010c565b5b600086015167ffffffffffffffff81111562000310576200030f62000111565b5b6200031e8882890162000262565b95505060206200033188828901620002b9565b94505060406200034488828901620002b9565b93505060606200035788828901620002b9565b92505060806200036a88828901620002b9565b9150509295509295909350565b600081519050919050565b7f4e487b7100000000000000000000000000000000000000000000000000000000600052602260045260246000fd5b60006002820490506001821680620003ca57607f821691505b602082108103620003e057620003df62000382565b5b50919050565b60008190508160005260206000209050919050565b60006020601f8301049050919050565b600082821b905092915050565b6000600883026200044a7fffffffffffffffffffffffffffffffffffffffffffffffffffffffffffffffff826200040b565b6200045686836200040b565b95508019841693508086168417925050509392505050565b6000819050919050565b600062000499620004936200048d8462000295565b6200046e565b62000295565b9050919050565b6000819050919050565b620004b58362000478565b620004cd620004c482620004a0565b84845462000418565b825550505050565b600090565b620004e4620004d5565b620004f1818484620004aa565b505050565b5b8181101562000519576200050d600082620004da565b600181019050620004f7565b5050565b601f82111562000568576200053281620003e6565b6200053d84620003fb565b810160208510156200054d578190505b620005656200055c85620003fb565b830182620004f6565b50505b505050565b600082821c905092915050565b60006200058d600019846008026200056d565b1980831691505092915050565b6000620005a883836200057a565b9150826002028217905092915050565b620005c38262000377565b67ffffffffffffffff811115620005df57620005de62000131565b5b620005eb8254620003b1565b620005f88282856200051d565b600060209050601f8311600181146200063057600084156200061b578287015190505b6200062785826200059a565b86555062000697565b601f1984166200064086620003e6565b60005b828110156200066a5784890151825560018201915060208501945060208101905062000643565b868310156200068a578489015162000686601f8916826200057a565b8355505b6001600288020188555050505b505050505050565b61338580620006af6000396000f3fe608060405234801561001057600080fd5b50600436106101415760003560e01c806342279a79116100b85780637b7391a71161007c5780637b7391a71461039257806395d89b41146103b0578063a457c2d7146103ce578063a9059cbb146103fe578063dd62ed3e1461042e578063f88af21d1461045e57610141565b806342279a79146102c457806346e1531f146102e25780636a030ca9146102fe57806370a082311461032f578063758dde961461035f57610141565b80631aa3a0081161010a5780631aa3a008146101ee57806323b872dd146101f8578063313ce5671461022857806339509351146102465780633b9c641e146102765780633e6cebca146102a657610141565b806223fca31461014657806303c462cf1461016457806306fdde0314610182578063095ea7b3146101a057806318160ddd146101d0575b600080fd5b61014e61048e565b60405161015b9190611f09565b60405180910390f35b61016c610494565b6040516101799190611f09565b60405180910390f35b61018a61049a565b6040516101979190611fb4565b60405180910390f35b6101ba60048036038101906101b59190612074565b61052c565b6040516101c791906120cf565b60405180910390f35b6101d861054f565b6040516101e59190611f09565b60405180910390f35b6101f6610559565b005b610212600480360381019061020d91906120ea565b61070c565b60405161021f91906120cf565b60405180910390f35b61023061073b565b60405161023d9190612159565b60405180910390f35b610260600480360381019061025b9190612074565b610744565b60405161026d91906120cf565b60405180910390f35b610290600480360381019061028b91906122a9565b61077b565b60405161029d91906120cf565b60405180910390f35b6102ae6107b1565b6040516102bb9190611f09565b60405180910390f35b6102cc6107b7565b6040516102d99190611fb4565b60405180910390f35b6102fc60048036038101906102f791906123a8565b610845565b005b61031860048036038101906103139190612429565b610b75565b604051610326929190612456565b60405180910390f35b61034960048036038101906103449190612486565b610c31565b6040516103569190611f09565b60405180910390f35b61037960048036038101906103749190612486565b610c79565b60405161038994939291906124b3565b60405180910390f35b61039a610cc3565b6040516103a79190611f09565b60405180910390f35b6103b8610cc9565b6040516103c59190611fb4565b60405180910390f35b6103e860048036038101906103e39190612074565b610d5b565b6040516103f591906120cf565b60405180910390f35b61041860048036038101906104139190612074565b610dd2565b60405161042591906120cf565b60405180910390f35b610448600480360381019061044391906124f8565b610df5565b6040516104559190611f09565b60405180910390f35b61047860048036038101906104739190612429565b610e7c565b6040516104859190612547565b60405180910390f35b60055481565b60075481565b6060600380546104a990612591565b80601f01602080910402602001604051908101604052809291908181526020018280546104d590612591565b80156105225780601f106104f757610100808354040283529160200191610522565b820191906000526020600020905b81548152906001019060200180831161050557829003601f168201915b5050505050905090565b600080610537610ebb565b9050610544818585610ec3565b600191505092915050565b6000600254905090565b600b60003373ffffffffffffffffffffffffffffffffffffffff1673ffffffffffffffffffffffffffffffffffffffff16815260200190815260200160002060010160009054906101000a900460ff16156105e9576040517f08c379a00000000000000000000000000000000000000000000000000000000081526004016105e09061260e565b60405180910390fd5b6001600b60003373ffffffffffffffffffffffffffffffffffffffff1673ffffffffffffffffffffffffffffffffffffffff16815260200190815260200160002060010160006101000a81548160ff021916908315150217905550600a80549050600b60003373ffffffffffffffffffffffffffffffffffffffff1673ffffffffffffffffffffffffffffffffffffffff16815260200190815260200160002060000181905550600a339080600181540180825580915050600190039060005260206000200160009091909190916101000a81548173ffffffffffffffffffffffffffffffffffffffff021916908373ffffffffffffffffffffffffffffffffffffffff160217905550600554600a805490500361070a5761070961108c565b5b565b600080610717610ebb565b905061072485828561128e565b61072f85858561131a565b60019150509392505050565b60006012905090565b60008061074f610ebb565b90506107708185856107618589610df5565b61076b919061265d565b610ec3565b600191505092915050565b600d818051602081018201805184825260208301602085012081835280955050505050506000915054906101000a900460ff1681565b60085481565b600980546107c490612591565b80601f01602080910402602001604051908101604052809291908181526020018280546107f090612591565b801561083d5780601f106108125761010080835404028352916020019161083d565b820191906000526020600020905b81548152906001019060200180831161082057829003601f168201915b505050505081565b600554600a80549050101561088f576040517f08c379a0000000000000000000000000000000000000000000000000000000008152600401610886906126dd565b60405180910390fd5b6000600b60003373ffffffffffffffffffffffffffffffffffffffff1673ffffffffffffffffffffffffffffffffffffffff16815260200190815260200160002090508060010160019054906101000a900460ff16610923576040517f08c379a000000000000000000000000000000000000000000000000000000000815260040161091a90612749565b60405180910390fd5b600d8585604051610935929190612799565b908152602001604051809103902060009054906101000a900460ff1615610991576040517f08c379a0000000000000000000000000000000000000000000000000000000008152600401610988906127fe565b60405180910390fd5b60006109ad82600201548585906109a891906128d1565b611590565b9050600c604051806040016040528088888080601f016020809104026020016040519081016040528093929190818152602001838380828437600081840152601f19601f820116905080830192505050505050508152602001846000015481525090806001815401808255809150506001900390600052602060002090600202016000909190919091506000820151816000019081610a4c9190612a92565b506020820151816001015550506001600d8787604051610a6d929190612799565b908152602001604051809103902060006101000a81548160ff02191690831515021790555060008260010160016101000a81548160ff02191690831515021790555060005b8151811015610b5c576000600c838381518110610ad257610ad1612b64565b5b602002602001015181548110610aeb57610aea612b64565b5b90600052602060002090600202019050610b48600a826001015481548110610b1657610b15612b64565b5b9060005260206000200160009054906101000a900473ffffffffffffffffffffffffffffffffffffffff1660016117a7565b508080610b5490612b93565b915050610ab2565b50610b656118fd565b610b6d61108c565b505050505050565b600c8181548110610b8557600080fd5b9060005260206000209060020201600091509050806000018054610ba890612591565b80601f0160208091040260200160405190810160405280929190818152602001828054610bd490612591565b8015610c215780601f10610bf657610100808354040283529160200191610c21565b820191906000526020600020905b815481529060010190602001808311610c0457829003601f168201915b5050505050908060010154905082565b60008060008373ffffffffffffffffffffffffffffffffffffffff1673ffffffffffffffffffffffffffffffffffffffff168152602001908152602001600020549050919050565b600b6020528060005260406000206000915090508060000154908060010160009054906101000a900460ff16908060010160019054906101000a900460ff16908060020154905084565b60065481565b606060048054610cd890612591565b80601f0160208091040260200160405190810160405280929190818152602001828054610d0490612591565b8015610d515780601f10610d2657610100808354040283529160200191610d51565b820191906000526020600020905b815481529060010190602001808311610d3457829003601f168201915b5050505050905090565b600080610d66610ebb565b90506000610d748286610df5565b905083811015610db9576040517f08c379a0000000000000000000000000000000000000000000000000000000008152600401610db090612c4d565b60405180910390fd5b610dc68286868403610ec3565b60019250505092915050565b600080610ddd610ebb565b9050610dea81858561131a565b600191505092915050565b6000600160008473ffffffffffffffffffffffffffffffffffffffff1673ffffffffffffffffffffffffffffffffffffffff16815260200190815260200160002060008373ffffffffffffffffffffffffffffffffffffffff1673ffffffffffffffffffffffffffffffffffffffff16815260200190815260200160002054905092915050565b600a8181548110610e8c57600080fd5b906000526020600020016000915054906101000a900473ffffffffffffffffffffffffffffffffffffffff1681565b600033905090565b600073ffffffffffffffffffffffffffffffffffffffff168373ffffffffffffffffffffffffffffffffffffffff1603610f32576040517f08c379a0000000000000000000000000000000000000000000000000000000008152600401610f2990612cdf565b60405180910390fd5b600073ffffffffffffffffffffffffffffffffffffffff168273ffffffffffffffffffffffffffffffffffffffff1603610fa1576040517f08c379a0000000000000000000000000000000000000000000000000000000008152600401610f9890612d71565b60405180910390fd5b80600160008573ffffffffffffffffffffffffffffffffffffffff1673ffffffffffffffffffffffffffffffffffffffff16815260200190815260200160002060008473ffffffffffffffffffffffffffffffffffffffff1673ffffffffffffffffffffffffffffffffffffffff168152602001908152602001600020819055508173ffffffffffffffffffffffffffffffffffffffff168373ffffffffffffffffffffffffffffffffffffffff167f8c5be1e5ebec7d5bd14f71427d1e84f3dd0314c0f7b2291e5b200ac8c7c3b9258360405161107f9190611f09565b60405180910390a3505050565b6000611096611a80565b905060006110a2611dd1565b9050806006546110b29190612d91565b825110156110f5576040517f08c379a00000000000000000000000000000000000000000000000000000000081526004016110ec90612e11565b60405180910390fd5b60005b6006548210156112895760008361111c8551848061111590612b93565b9550611ea5565b8151811061112d5761112c612b64565b5b602002602001015190506000600b6000600a848154811061115157611150612b64565b5b9060005260206000200160009054906101000a900473ffffffffffffffffffffffffffffffffffffffff1673ffffffffffffffffffffffffffffffffffffffff1673ffffffffffffffffffffffffffffffffffffffff168152602001908152602001600020905060018160010160016101000a81548160ff021916908315150217905550600c805490508160020181905550600c80549050600a83815481106111fd576111fc612b64565b5b9060005260206000200160009054906101000a900473ffffffffffffffffffffffffffffffffffffffff1673ffffffffffffffffffffffffffffffffffffffff167fb54203a49d362ca51966a45a58cd0a64cf0107259da54042db7d15e57177616e60405160405180910390a3838061127590612b93565b945050611280611a80565b945050506110f8565b505050565b600061129a8484610df5565b90507fffffffffffffffffffffffffffffffffffffffffffffffffffffffffffffffff81146113145781811015611306576040517f08c379a00000000000000000000000000000000000000000000000000000000081526004016112fd90612e7d565b60405180910390fd5b6113138484848403610ec3565b5b50505050565b600073ffffffffffffffffffffffffffffffffffffffff168373ffffffffffffffffffffffffffffffffffffffff1603611389576040517f08c379a000000000000000000000000000000000000000000000000000000000815260040161138090612f0f565b60405180910390fd5b600073ffffffffffffffffffffffffffffffffffffffff168273ffffffffffffffffffffffffffffffffffffffff16036113f8576040517f08c379a00000000000000000000000000000000000000000000000000000000081526004016113ef90612fa1565b60405180910390fd5b611403838383611ee6565b60008060008573ffffffffffffffffffffffffffffffffffffffff1673ffffffffffffffffffffffffffffffffffffffff16815260200190815260200160002054905081811015611489576040517f08c379a000000000000000000000000000000000000000000000000000000000815260040161148090613033565b60405180910390fd5b8181036000808673ffffffffffffffffffffffffffffffffffffffff1673ffffffffffffffffffffffffffffffffffffffff16815260200190815260200160002081905550816000808573ffffffffffffffffffffffffffffffffffffffff1673ffffffffffffffffffffffffffffffffffffffff168152602001908152602001600020600082825401925050819055508273ffffffffffffffffffffffffffffffffffffffff168473ffffffffffffffffffffffffffffffffffffffff167fddf252ad1be2c89b69c2b068fc378daa952ba7f163c4a11628f55a4df523b3ef846040516115779190611f09565b60405180910390a361158a848484611eeb565b50505050565b60606000825167ffffffffffffffff8111156115af576115ae61217e565b5b6040519080825280602002602001820160405280156115dd5781602001602082028036833780820191505090505b509050600060085485106115f3576008546115f5565b845b90508351811461163a576040517f08c379a00000000000000000000000000000000000000000000000000000000081526004016116319061309f565b60405180910390fd5b6000600754861161164c57600061165b565b6007548661165a9190612d91565b5b905060005b855181101561179a576000808390505b888110156117455787838151811061168b5761168a612b64565b5b60200260200101516040516020016116a391906130f0565b60405160208183030381529060405280519060200120600c82815481106116cd576116cc612b64565b5b90600052602060002090600202016000016040516020016116ee919061318a565b6040516020818303038152906040528051906020012003611732578086848151811061171d5761171c612b64565b5b60200260200101818152505060019150611745565b808061173d90612b93565b915050611670565b5080611786576040517f08c379a000000000000000000000000000000000000000000000000000000000815260040161177d906131ed565b60405180910390fd5b50808061179290612b93565b915050611660565b5082935050505092915050565b600073ffffffffffffffffffffffffffffffffffffffff168273ffffffffffffffffffffffffffffffffffffffff1603611816576040517f08c379a000000000000000000000000000000000000000000000000000000000815260040161180d90613259565b60405180910390fd5b61182260008383611ee6565b8060026000828254611834919061265d565b92505081905550806000808473ffffffffffffffffffffffffffffffffffffffff1673ffffffffffffffffffffffffffffffffffffffff168152602001908152602001600020600082825401925050819055508173ffffffffffffffffffffffffffffffffffffffff16600073ffffffffffffffffffffffffffffffffffffffff167fddf252ad1be2c89b69c2b068fc378daa952ba7f163c4a11628f55a4df523b3ef836040516118e59190611f09565b60405180910390a36118f960008383611eeb565b5050565b6000600c805490509050600080600090505b600a80549050811015611a20576000600b6000600a848154811061193657611935612b64565b5b9060005260206000200160009054906101000a900473ffffffffffffffffffffffffffffffffffffffff1673ffffffffffffffffffffffffffffffffffffffff1673ffffffffffffffffffffffffffffffffffffffff16815260200190815260200160002090508060010160019054906101000a900460ff1680156119be5750838160020154105b15611a0c5780600201549350600a82815481106119de576119dd612b64565b5b9060005260206000200160009054906101000a900473ffffffffffffffffffffffffffffffffffffffff1692505b508080611a1890612b93565b91505061190f565b506000600b60008373ffffffffffffffffffffffffffffffffffffffff1673ffffffffffffffffffffffffffffffffffffffff16815260200190815260200160002060010160016101000a81548160ff0219169083151502179055505050565b60606000600a8054905067ffffffffffffffff811115611aa357611aa261217e565b5b604051908082528060200260200182016040528015611ad15781602001602082028036833780820191505090505b5090506000600a80549050905060005b600a80549050811015611bee57600b6000600a8381548110611b0657611b05612b64565b5b9060005260206000200160009054906101000a900473ffffffffffffffffffffffffffffffffffffffff1673ffffffffffffffffffffffffffffffffffffffff1673ffffffffffffffffffffffffffffffffffffffff16815260200190815260200160002060010160019054906101000a900460ff1615838281518110611b9057611b8f612b64565b5b602002602001019015159081151581525050828181518110611bb557611bb4612b64565b5b6020026020010151611bc8576001611bcb565b60005b60ff1682611bd99190612d91565b91508080611be690612b93565b915050611ae1565b506000600c8054905090505b600081118015611c2d5750600754600c80549050118015611c2c5750600754600c80549050611c299190612d91565b81115b5b15611d075782600c600183611c429190612d91565b81548110611c5357611c52612b64565b5b90600052602060002090600202016001015481518110611c7657611c75612b64565b5b6020026020010151611c89576000611c8c565b60015b60ff1682611c9a9190612d91565b9150600083600c600184611cae9190612d91565b81548110611cbf57611cbe612b64565b5b90600052602060002090600202016001015481518110611ce257611ce1612b64565b5b6020026020010190151590811515815250508080611cff90613279565b915050611bfa565b5060008167ffffffffffffffff811115611d2457611d2361217e565b5b604051908082528060200260200182016040528015611d525781602001602082028036833780820191505090505b5090506000805b600a80549050811015611dc657848181518110611d7957611d78612b64565b5b602002602001015115611db35780838380611d9390612b93565b945081518110611da657611da5612b64565b5b6020026020010181815250505b8080611dbe90612b93565b915050611d59565b508194505050505090565b6000806000905060005b600a80549050811015611e9d57600b6000600a8381548110611e0057611dff612b64565b5b9060005260206000200160009054906101000a900473ffffffffffffffffffffffffffffffffffffffff1673ffffffffffffffffffffffffffffffffffffffff1673ffffffffffffffffffffffffffffffffffffffff16815260200190815260200160002060010160019054906101000a900460ff1615611e8a578180611e8690612b93565b9250505b8080611e9590612b93565b915050611ddb565b508091505090565b6000824283604051602001611ebb9291906132c3565b6040516020818303038152906040528051906020012060001c611ede919061331e565b905092915050565b505050565b505050565b6000819050919050565b611f0381611ef0565b82525050565b6000602082019050611f1e6000830184611efa565b92915050565b600081519050919050565b600082825260208201905092915050565b60005b83811015611f5e578082015181840152602081019050611f43565b60008484015250505050565b6000601f19601f8301169050919050565b6000611f8682611f24565b611f908185611f2f565b9350611fa0818560208601611f40565b611fa981611f6a565b840191505092915050565b60006020820190508181036000830152611fce8184611f7b565b905092915050565b6000604051905090565b600080fd5b600080fd5b600073ffffffffffffffffffffffffffffffffffffffff82169050919050565b600061201582611fea565b9050919050565b6120258161200a565b811461203057600080fd5b50565b6000813590506120428161201c565b92915050565b61205181611ef0565b811461205c57600080fd5b50565b60008135905061206e81612048565b92915050565b6000806040838503121561208b5761208a611fe0565b5b600061209985828601612033565b92505060206120aa8582860161205f565b9150509250929050565b60008115159050919050565b6120c9816120b4565b82525050565b60006020820190506120e460008301846120c0565b92915050565b60008060006060848603121561210357612102611fe0565b5b600061211186828701612033565b935050602061212286828701612033565b92505060406121338682870161205f565b9150509250925092565b600060ff82169050919050565b6121538161213d565b82525050565b600060208201905061216e600083018461214a565b92915050565b600080fd5b600080fd5b7f4e487b7100000000000000000000000000000000000000000000000000000000600052604160045260246000fd5b6121b682611f6a565b810181811067ffffffffffffffff821117156121d5576121d461217e565b5b80604052505050565b60006121e8611fd6565b90506121f482826121ad565b919050565b600067ffffffffffffffff8211156122145761221361217e565b5b61221d82611f6a565b9050602081019050919050565b82818337600083830152505050565b600061224c612247846121f9565b6121de565b90508281526020810184848401111561226857612267612179565b5b61227384828561222a565b509392505050565b600082601f8301126122905761228f612174565b5b81356122a0848260208601612239565b91505092915050565b6000602082840312156122bf576122be611fe0565b5b600082013567ffffffffffffffff8111156122dd576122dc611fe5565b5b6122e98482850161227b565b91505092915050565b600080fd5b600080fd5b60008083601f84011261231257612311612174565b5b8235905067ffffffffffffffff81111561232f5761232e6122f2565b5b60208301915083600182028301111561234b5761234a6122f7565b5b9250929050565b60008083601f84011261236857612367612174565b5b8235905067ffffffffffffffff811115612385576123846122f2565b5b6020830191508360208202830111156123a1576123a06122f7565b5b9250929050565b600080600080604085870312156123c2576123c1611fe0565b5b600085013567ffffffffffffffff8111156123e0576123df611fe5565b5b6123ec878288016122fc565b9450945050602085013567ffffffffffffffff81111561240f5761240e611fe5565b5b61241b87828801612352565b925092505092959194509250565b60006020828403121561243f5761243e611fe0565b5b600061244d8482850161205f565b91505092915050565b600060408201905081810360008301526124708185611f7b565b905061247f6020830184611efa565b9392505050565b60006020828403121561249c5761249b611fe0565b5b60006124aa84828501612033565b91505092915050565b60006080820190506124c86000830187611efa565b6124d560208301866120c0565b6124e260408301856120c0565b6124ef6060830184611efa565b95945050505050565b6000806040838503121561250f5761250e611fe0565b5b600061251d85828601612033565b925050602061252e85828601612033565b9150509250929050565b6125418161200a565b82525050565b600060208201905061255c6000830184612538565b92915050565b7f4e487b7100000000000000000000000000000000000000000000000000000000600052602260045260246000fd5b600060028204905060018216806125a957607f821691505b6020821081036125bc576125bb612562565b5b50919050565b7f416c726561647920726567697374657265640000000000000000000000000000600082015250565b60006125f8601283611f2f565b9150612603826125c2565b602082019050919050565b60006020820190508181036000830152612627816125eb565b9050919050565b7f4e487b7100000000000000000000000000000000000000000000000000000000600052601160045260246000fd5b600061266882611ef0565b915061267383611ef0565b925082820190508082111561268b5761268a61262e565b5b92915050565b7f4e6f7420656e6f75676820636c69656e74730000000000000000000000000000600082015250565b60006126c7601283611f2f565b91506126d282612691565b602082019050919050565b600060208201905081810360008301526126f6816126ba565b9050919050565b7f4e6f206c6561726e696e67207269676874000000000000000000000000000000600082015250565b6000612733601183611f2f565b915061273e826126fd565b602082019050919050565b6000602082019050818103600083015261276281612726565b9050919050565b600081905092915050565b60006127808385612769565b935061278d83858461222a565b82840190509392505050565b60006127a6828486612774565b91508190509392505050565b7f4d6f64656c20616c726561647920657869737473000000000000000000000000600082015250565b60006127e8601483611f2f565b91506127f3826127b2565b602082019050919050565b60006020820190508181036000830152612817816127db565b9050919050565b600067ffffffffffffffff8211156128395761283861217e565b5b602082029050602081019050919050565b600061285d6128588461281e565b6121de565b905080838252602082019050602084028301858111156128805761287f6122f7565b5b835b818110156128c757803567ffffffffffffffff8111156128a5576128a4612174565b5b8086016128b2898261227b565b85526020850194505050602081019050612882565b5050509392505050565b60006128de36848461284a565b905092915050565b60008190508160005260206000209050919050565b60006020601f8301049050919050565b600082821b905092915050565b6000600883026129487fffffffffffffffffffffffffffffffffffffffffffffffffffffffffffffffff8261290b565b612952868361290b565b95508019841693508086168417925050509392505050565b6000819050919050565b600061298f61298a61298584611ef0565b61296a565b611ef0565b9050919050565b6000819050919050565b6129a983612974565b6129bd6129b582612996565b848454612918565b825550505050565b600090565b6129d26129c5565b6129dd8184846129a0565b505050565b5b81811015612a01576129f66000826129ca565b6001810190506129e3565b5050565b601f821115612a4657612a17816128e6565b612a20846128fb565b81016020851015612a2f578190505b612a43612a3b856128fb565b8301826129e2565b50505b505050565b600082821c905092915050565b6000612a6960001984600802612a4b565b1980831691505092915050565b6000612a828383612a58565b9150826002028217905092915050565b612a9b82611f24565b67ffffffffffffffff811115612ab457612ab361217e565b5b612abe8254612591565b612ac9828285612a05565b600060209050601f831160018114612afc5760008415612aea578287015190505b612af48582612a76565b865550612b5c565b601f198416612b0a866128e6565b60005b82811015612b3257848901518255600182019150602085019450602081019050612b0d565b86831015612b4f5784890151612b4b601f891682612a58565b8355505b6001600288020188555050505b505050505050565b7f4e487b7100000000000000000000000000000000000000000000000000000000600052603260045260246000fd5b6000612b9e82611ef0565b91507fffffffffffffffffffffffffffffffffffffffffffffffffffffffffffffffff8203612bd057612bcf61262e565b5b600182019050919050565b7f45524332303a2064656372656173656420616c6c6f77616e63652062656c6f7760008201527f207a65726f000000000000000000000000000000000000000000000000000000602082015250565b6000612c37602583611f2f565b9150612c4282612bdb565b604082019050919050565b60006020820190508181036000830152612c6681612c2a565b9050919050565b7f45524332303a20617070726f76652066726f6d20746865207a65726f2061646460008201527f7265737300000000000000000000000000000000000000000000000000000000602082015250565b6000612cc9602483611f2f565b9150612cd482612c6d565b604082019050919050565b60006020820190508181036000830152612cf881612cbc565b9050919050565b7f45524332303a20617070726f766520746f20746865207a65726f20616464726560008201527f7373000000000000000000000000000000000000000000000000000000000000602082015250565b6000612d5b602283611f2f565b9150612d6682612cff565b604082019050919050565b60006020820190508181036000830152612d8a81612d4e565b9050919050565b6000612d9c82611ef0565b9150612da783611ef0565b9250828203905081811115612dbf57612dbe61262e565b5b92915050565b7f4e6f7420656e6f75676820656c696769626c6520636c69656e74730000000000600082015250565b6000612dfb601b83611f2f565b9150612e0682612dc5565b602082019050919050565b60006020820190508181036000830152612e2a81612dee565b9050919050565b7f45524332303a20696e73756666696369656e7420616c6c6f77616e6365000000600082015250565b6000612e67601d83611f2f565b9150612e7282612e31565b602082019050919050565b60006020820190508181036000830152612e9681612e5a565b9050919050565b7f45524332303a207472616e736665722066726f6d20746865207a65726f20616460008201527f6472657373000000000000000000000000000000000000000000000000000000602082015250565b6000612ef9602583611f2f565b9150612f0482612e9d565b604082019050919050565b60006020820190508181036000830152612f2881612eec565b9050919050565b7f45524332303a207472616e7366657220746f20746865207a65726f206164647260008201527f6573730000000000000000000000000000000000000000000000000000000000602082015250565b6000612f8b602383611f2f565b9150612f9682612f2f565b604082019050919050565b60006020820190508181036000830152612fba81612f7e565b9050919050565b7f45524332303a207472616e7366657220616d6f756e742065786365656473206260008201527f616c616e63650000000000000000000000000000000000000000000000000000602082015250565b600061301d602683611f2f565b915061302882612fc1565b604082019050919050565b6000602082019050818103600083015261304c81613010565b9050919050565b7f496e76616c6964206e756d626572206f6620766f746500000000000000000000600082015250565b6000613089601683611f2f565b915061309482613053565b602082019050919050565b600060208201905081810360008301526130b88161307c565b9050919050565b60006130ca82611f24565b6130d48185612769565b93506130e4818560208601611f40565b80840191505092915050565b60006130fc82846130bf565b915081905092915050565b6000815461311481612591565b61311e8186612769565b94506001821660008114613139576001811461314e57613181565b60ff1983168652811515820286019350613181565b613157856128e6565b60005b838110156131795781548189015260018201915060208101905061315a565b838801955050505b50505092915050565b60006131968284613107565b915081905092915050565b7f496e76616c6964206d6f64656c20696e64657800000000000000000000000000600082015250565b60006131d7601383611f2f565b91506131e2826131a1565b602082019050919050565b60006020820190508181036000830152613206816131ca565b9050919050565b7f45524332303a206d696e7420746f20746865207a65726f206164647265737300600082015250565b6000613243601f83611f2f565b915061324e8261320d565b602082019050919050565b6000602082019050818103600083015261327281613236565b9050919050565b600061328482611ef0565b9150600082036132975761329661262e565b5b600182039050919050565b6000819050919050565b6132bd6132b882611ef0565b6132a2565b82525050565b60006132cf82856132ac565b6020820191506132df82846132ac565b6020820191508190509392505050565b7f4e487b7100000000000000000000000000000000000000000000000000000000600052601260045260246000fd5b600061332982611ef0565b915061333483611ef0565b925082613344576133436132ef565b5b82820690509291505056fea26469706673582212203c134eb30378b774366be870368f726c1c761a0f55476ebb38c6226122dea1c064736f6c63430008120033",
  "linkReferences": {},
  "deployedLinkReferences": {}
}