{
  "_format": "hh-sol-artifact-1",
  "contractName": "FederatedLearning",
  "sourceName": "contracts/FederatedLearning.sol",
  "abi": [
    {
      "inputs": [
        {
          "internalType": "string",
          "name": "_initialModelCID",
          "type": "string"
        }
      ],
      "stateMutability": "nonpayable",
      "type": "constructor"
    },
    {
      "anonymous": false,
      "inputs": [
        {
          "indexed": true,
          "internalType": "address",
          "name": "owner",
          "type": "address"
        },
        {
          "indexed": true,
          "internalType": "address",
          "name": "spender",
          "type": "address"
        },
        {
          "indexed": false,
          "internalType": "uint256",
          "name": "value",
          "type": "uint256"
        }
      ],
      "name": "Approval",
      "type": "event"
    },
    {
      "anonymous": false,
      "inputs": [
        {
          "indexed": true,
          "internalType": "address",
          "name": "client",
          "type": "address"
        },
        {
          "indexed": true,
          "internalType": "uint256",
          "name": "latestModelIndex",
          "type": "uint256"
        }
      ],
      "name": "LearningRightGranted",
      "type": "event"
    },
    {
      "anonymous": false,
      "inputs": [
        {
          "indexed": true,
          "internalType": "address",
          "name": "from",
          "type": "address"
        },
        {
          "indexed": true,
          "internalType": "address",
          "name": "to",
          "type": "address"
        },
        {
          "indexed": false,
          "internalType": "uint256",
          "name": "value",
          "type": "uint256"
        }
      ],
      "name": "Transfer",
      "type": "event"
    },
    {
      "inputs": [],
      "name": "ClientNumThres",
      "outputs": [
        {
          "internalType": "uint256",
          "name": "",
          "type": "uint256"
        }
      ],
      "stateMutability": "view",
      "type": "function"
    },
    {
      "inputs": [],
      "name": "ClientWithLearnigLightNum",
      "outputs": [
        {
          "internalType": "uint256",
          "name": "",
          "type": "uint256"
        }
      ],
      "stateMutability": "view",
      "type": "function"
    },
    {
      "inputs": [],
      "name": "VotableModelNum",
      "outputs": [
        {
          "internalType": "uint256",
          "name": "",
          "type": "uint256"
        }
      ],
      "stateMutability": "view",
      "type": "function"
    },
    {
      "inputs": [],
      "name": "VoteNum",
      "outputs": [
        {
          "internalType": "uint256",
          "name": "",
          "type": "uint256"
        }
      ],
      "stateMutability": "view",
      "type": "function"
    },
    {
      "inputs": [
        {
          "internalType": "address",
          "name": "owner",
          "type": "address"
        },
        {
          "internalType": "address",
          "name": "spender",
          "type": "address"
        }
      ],
      "name": "allowance",
      "outputs": [
        {
          "internalType": "uint256",
          "name": "",
          "type": "uint256"
        }
      ],
      "stateMutability": "view",
      "type": "function"
    },
    {
      "inputs": [
        {
          "internalType": "address",
          "name": "spender",
          "type": "address"
        },
        {
          "internalType": "uint256",
          "name": "amount",
          "type": "uint256"
        }
      ],
      "name": "approve",
      "outputs": [
        {
          "internalType": "bool",
          "name": "",
          "type": "bool"
        }
      ],
      "stateMutability": "nonpayable",
      "type": "function"
    },
    {
      "inputs": [
        {
          "internalType": "address",
          "name": "account",
          "type": "address"
        }
      ],
      "name": "balanceOf",
      "outputs": [
        {
          "internalType": "uint256",
          "name": "",
          "type": "uint256"
        }
      ],
      "stateMutability": "view",
      "type": "function"
    },
    {
      "inputs": [
        {
          "internalType": "address",
          "name": "",
          "type": "address"
        }
      ],
      "name": "clientInfo",
      "outputs": [
        {
          "internalType": "bool",
          "name": "registered",
          "type": "bool"
        },
        {
          "internalType": "bool",
          "name": "hasLearningRight",
          "type": "bool"
        },
        {
          "internalType": "uint256",
          "name": "latestModelIndex",
          "type": "uint256"
        }
      ],
      "stateMutability": "view",
      "type": "function"
    },
    {
      "inputs": [
        {
          "internalType": "uint256",
          "name": "",
          "type": "uint256"
        }
      ],
      "name": "clients",
      "outputs": [
        {
          "internalType": "address",
          "name": "",
          "type": "address"
        }
      ],
      "stateMutability": "view",
      "type": "function"
    },
    {
      "inputs": [],
      "name": "decimals",
      "outputs": [
        {
          "internalType": "uint8",
          "name": "",
          "type": "uint8"
        }
      ],
      "stateMutability": "view",
      "type": "function"
    },
    {
      "inputs": [
        {
          "internalType": "address",
          "name": "spender",
          "type": "address"
        },
        {
          "internalType": "uint256",
          "name": "subtractedValue",
          "type": "uint256"
        }
      ],
      "name": "decreaseAllowance",
      "outputs": [
        {
          "internalType": "bool",
          "name": "",
          "type": "bool"
        }
      ],
      "stateMutability": "nonpayable",
      "type": "function"
    },
    {
      "inputs": [
        {
          "internalType": "address",
          "name": "spender",
          "type": "address"
        },
        {
          "internalType": "uint256",
          "name": "addedValue",
          "type": "uint256"
        }
      ],
      "name": "increaseAllowance",
      "outputs": [
        {
          "internalType": "bool",
          "name": "",
          "type": "bool"
        }
      ],
      "stateMutability": "nonpayable",
      "type": "function"
    },
    {
      "inputs": [],
      "name": "initialModelCID",
      "outputs": [
        {
          "internalType": "string",
          "name": "",
          "type": "string"
        }
      ],
      "stateMutability": "view",
      "type": "function"
    },
    {
      "inputs": [
        {
          "internalType": "uint256",
          "name": "",
          "type": "uint256"
        }
      ],
      "name": "models",
      "outputs": [
        {
          "internalType": "string",
          "name": "CID",
          "type": "string"
        },
        {
          "internalType": "address",
          "name": "author",
          "type": "address"
        }
      ],
      "stateMutability": "view",
      "type": "function"
    },
    {
      "inputs": [],
      "name": "name",
      "outputs": [
        {
          "internalType": "string",
          "name": "",
          "type": "string"
        }
      ],
      "stateMutability": "view",
      "type": "function"
    },
    {
      "inputs": [],
      "name": "register",
      "outputs": [],
      "stateMutability": "nonpayable",
      "type": "function"
    },
    {
      "inputs": [
        {
          "internalType": "string",
          "name": "_newModelCID",
          "type": "string"
        },
        {
          "internalType": "string[]",
          "name": "_votedModelCIDs",
          "type": "string[]"
        }
      ],
      "name": "submitModel",
      "outputs": [],
      "stateMutability": "nonpayable",
      "type": "function"
    },
    {
      "inputs": [],
      "name": "symbol",
      "outputs": [
        {
          "internalType": "string",
          "name": "",
          "type": "string"
        }
      ],
      "stateMutability": "view",
      "type": "function"
    },
    {
      "inputs": [],
      "name": "totalSupply",
      "outputs": [
        {
          "internalType": "uint256",
          "name": "",
          "type": "uint256"
        }
      ],
      "stateMutability": "view",
      "type": "function"
    },
    {
      "inputs": [
        {
          "internalType": "address",
          "name": "to",
          "type": "address"
        },
        {
          "internalType": "uint256",
          "name": "amount",
          "type": "uint256"
        }
      ],
      "name": "transfer",
      "outputs": [
        {
          "internalType": "bool",
          "name": "",
          "type": "bool"
        }
      ],
      "stateMutability": "nonpayable",
      "type": "function"
    },
    {
      "inputs": [
        {
          "internalType": "address",
          "name": "from",
          "type": "address"
        },
        {
          "internalType": "address",
          "name": "to",
          "type": "address"
        },
        {
          "internalType": "uint256",
          "name": "amount",
          "type": "uint256"
        }
      ],
      "name": "transferFrom",
      "outputs": [
        {
          "internalType": "bool",
          "name": "",
          "type": "bool"
        }
      ],
      "stateMutability": "nonpayable",
      "type": "function"
    }
  ],
  "bytecode": "0x60806040523480156200001157600080fd5b50604051620038ea380380620038ea833981810160405281019062000037919062000275565b6040518060400160405280601881526020017f466564657261746564204c6561726e696e6720546f6b656e00000000000000008152506040518060400160405280600381526020017f464c5400000000000000000000000000000000000000000000000000000000008152508160039081620000b4919062000511565b508060049081620000c6919062000511565b5050508060059081620000da919062000511565b5050620005f8565b6000604051905090565b600080fd5b600080fd5b600080fd5b600080fd5b6000601f19601f8301169050919050565b7f4e487b7100000000000000000000000000000000000000000000000000000000600052604160045260246000fd5b6200014b8262000100565b810181811067ffffffffffffffff821117156200016d576200016c62000111565b5b80604052505050565b600062000182620000e2565b905062000190828262000140565b919050565b600067ffffffffffffffff821115620001b357620001b262000111565b5b620001be8262000100565b9050602081019050919050565b60005b83811015620001eb578082015181840152602081019050620001ce565b60008484015250505050565b60006200020e620002088462000195565b62000176565b9050828152602081018484840111156200022d576200022c620000fb565b5b6200023a848285620001cb565b509392505050565b600082601f8301126200025a5762000259620000f6565b5b81516200026c848260208601620001f7565b91505092915050565b6000602082840312156200028e576200028d620000ec565b5b600082015167ffffffffffffffff811115620002af57620002ae620000f1565b5b620002bd8482850162000242565b91505092915050565b600081519050919050565b7f4e487b7100000000000000000000000000000000000000000000000000000000600052602260045260246000fd5b600060028204905060018216806200031957607f821691505b6020821081036200032f576200032e620002d1565b5b50919050565b60008190508160005260206000209050919050565b60006020601f8301049050919050565b600082821b905092915050565b600060088302620003997fffffffffffffffffffffffffffffffffffffffffffffffffffffffffffffffff826200035a565b620003a586836200035a565b95508019841693508086168417925050509392505050565b6000819050919050565b6000819050919050565b6000620003f2620003ec620003e684620003bd565b620003c7565b620003bd565b9050919050565b6000819050919050565b6200040e83620003d1565b620004266200041d82620003f9565b84845462000367565b825550505050565b600090565b6200043d6200042e565b6200044a81848462000403565b505050565b5b8181101562000472576200046660008262000433565b60018101905062000450565b5050565b601f821115620004c1576200048b8162000335565b62000496846200034a565b81016020851015620004a6578190505b620004be620004b5856200034a565b8301826200044f565b50505b505050565b600082821c905092915050565b6000620004e660001984600802620004c6565b1980831691505092915050565b6000620005018383620004d3565b9150826002028217905092915050565b6200051c82620002c6565b67ffffffffffffffff81111562000538576200053762000111565b5b62000544825462000300565b6200055182828562000476565b600060209050601f83116001811462000589576000841562000574578287015190505b620005808582620004f3565b865550620005f0565b601f198416620005998662000335565b60005b82811015620005c3578489015182556001820191506020850194506020810190506200059c565b86831015620005e35784890151620005df601f891682620004d3565b8355505b6001600288020188555050505b505050505050565b6132e280620006086000396000f3fe608060405234801561001057600080fd5b50600436106101365760003560e01c806342279a79116100b8578063758dde961161007c578063758dde961461034257806395d89b4114610374578063a457c2d714610392578063a9059cbb146103c2578063dd62ed3e146103f2578063f88af21d1461042257610136565b806342279a791461028957806346e1531f146102a75780636a030ca9146102c357806370a08231146102f4578063729ca9451461032457610136565b80631aa3a008116100ff5780631aa3a008146101e357806323b872dd146101ed578063313ce5671461021d578063395093511461023b5780633e6cebca1461026b57610136565b806223fca31461013b57806303c462cf1461015957806306fdde0314610177578063095ea7b31461019557806318160ddd146101c5575b600080fd5b610143610452565b6040516101509190611f67565b60405180910390f35b610161610457565b60405161016e9190611f67565b60405180910390f35b61017f61045c565b60405161018c9190612012565b60405180910390f35b6101af60048036038101906101aa91906120d2565b6104ee565b6040516101bc919061212d565b60405180910390f35b6101cd610511565b6040516101da9190611f67565b60405180910390f35b6101eb61051b565b005b61020760048036038101906102029190612148565b610681565b604051610214919061212d565b60405180910390f35b6102256106b0565b60405161023291906121b7565b60405180910390f35b610255600480360381019061025091906120d2565b6106b9565b604051610262919061212d565b60405180910390f35b6102736106f0565b6040516102809190611f67565b60405180910390f35b6102916106f5565b60405161029e9190612012565b60405180910390f35b6102c160048036038101906102bc919061228d565b610783565b005b6102dd60048036038101906102d8919061230e565b610ad2565b6040516102eb92919061234a565b60405180910390f35b61030e6004803603810190610309919061237a565b610bae565b60405161031b9190611f67565b60405180910390f35b61032c610bf6565b6040516103399190611f67565b60405180910390f35b61035c6004803603810190610357919061237a565b610bfb565b60405161036b939291906123a7565b60405180910390f35b61037c610c3f565b6040516103899190612012565b60405180910390f35b6103ac60048036038101906103a791906120d2565b610cd1565b6040516103b9919061212d565b60405180910390f35b6103dc60048036038101906103d791906120d2565b610d48565b6040516103e9919061212d565b60405180910390f35b61040c600480360381019061040791906123de565b610d6b565b6040516104199190611f67565b60405180910390f35b61043c6004803603810190610437919061230e565b610df2565b604051610449919061241e565b60405180910390f35b600a81565b600381565b60606003805461046b90612468565b80601f016020809104026020016040519081016040528092919081815260200182805461049790612468565b80156104e45780601f106104b9576101008083540402835291602001916104e4565b820191906000526020600020905b8154815290600101906020018083116104c757829003601f168201915b5050505050905090565b6000806104f9610e31565b9050610506818585610e39565b600191505092915050565b6000600254905090565b600760003373ffffffffffffffffffffffffffffffffffffffff1673ffffffffffffffffffffffffffffffffffffffff16815260200190815260200160002060000160009054906101000a900460ff16156105ab576040517f08c379a00000000000000000000000000000000000000000000000000000000081526004016105a2906124e5565b60405180910390fd5b6001600760003373ffffffffffffffffffffffffffffffffffffffff1673ffffffffffffffffffffffffffffffffffffffff16815260200190815260200160002060000160006101000a81548160ff0219169083151502179055506006339080600181540180825580915050600190039060005260206000200160009091909190916101000a81548173ffffffffffffffffffffffffffffffffffffffff021916908373ffffffffffffffffffffffffffffffffffffffff160217905550600a6006805490500361067f5761067e611002565b5b565b60008061068c610e31565b9050610699858285611148565b6106a48585856111d4565b60019150509392505050565b60006012905090565b6000806106c4610e31565b90506106e58185856106d68589610d6b565b6106e09190612534565b610e39565b600191505092915050565b600181565b6005805461070290612468565b80601f016020809104026020016040519081016040528092919081815260200182805461072e90612468565b801561077b5780601f106107505761010080835404028352916020019161077b565b820191906000526020600020905b81548152906001019060200180831161075e57829003601f168201915b505050505081565b600a60068054905010156107cc576040517f08c379a00000000000000000000000000000000000000000000000000000000081526004016107c3906125b4565b60405180910390fd5b6000600760003373ffffffffffffffffffffffffffffffffffffffff1673ffffffffffffffffffffffffffffffffffffffff16815260200190815260200160002090508060000160019054906101000a900460ff16610860576040517f08c379a000000000000000000000000000000000000000000000000000000000815260040161085790612620565b60405180910390fd5b6108ad85858080601f016020809104026020016040519081016040528093929190818152602001838380828437600081840152601f19601f8201169050808301925050505050505061144a565b156108ed576040517f08c379a00000000000000000000000000000000000000000000000000000000081526004016108e49061268c565b60405180910390fd5b60006109048484906108ff919061288f565b6114fe565b9050610914826001015482611651565b6008604051806040016040528088888080601f016020809104026020016040519081016040528093929190818152602001838380828437600081840152601f19601f8201169050808301925050505050505081526020013373ffffffffffffffffffffffffffffffffffffffff16815250908060018154018082558091505060019003906000526020600020906002020160009091909190915060008201518160000190816109c39190612a50565b5060208201518160010160006101000a81548173ffffffffffffffffffffffffffffffffffffffff021916908373ffffffffffffffffffffffffffffffffffffffff160217905550505060008260000160016101000a81548160ff02191690831515021790555060005b8151811015610ab95760006008838381518110610a4d57610a4c612b22565b5b602002602001015181548110610a6657610a65612b22565b5b90600052602060002090600202019050610aa58160010160009054906101000a900473ffffffffffffffffffffffffffffffffffffffff1660016117ad565b508080610ab190612b51565b915050610a2d565b50610ac2611903565b610aca611002565b505050505050565b60088181548110610ae257600080fd5b9060005260206000209060020201600091509050806000018054610b0590612468565b80601f0160208091040260200160405190810160405280929190818152602001828054610b3190612468565b8015610b7e5780601f10610b5357610100808354040283529160200191610b7e565b820191906000526020600020905b815481529060010190602001808311610b6157829003601f168201915b5050505050908060010160009054906101000a900473ffffffffffffffffffffffffffffffffffffffff16905082565b60008060008373ffffffffffffffffffffffffffffffffffffffff1673ffffffffffffffffffffffffffffffffffffffff168152602001908152602001600020549050919050565b600381565b60076020528060005260406000206000915090508060000160009054906101000a900460ff16908060000160019054906101000a900460ff16908060010154905083565b606060048054610c4e90612468565b80601f0160208091040260200160405190810160405280929190818152602001828054610c7a90612468565b8015610cc75780601f10610c9c57610100808354040283529160200191610cc7565b820191906000526020600020905b815481529060010190602001808311610caa57829003601f168201915b5050505050905090565b600080610cdc610e31565b90506000610cea8286610d6b565b905083811015610d2f576040517f08c379a0000000000000000000000000000000000000000000000000000000008152600401610d2690612c0b565b60405180910390fd5b610d3c8286868403610e39565b60019250505092915050565b600080610d53610e31565b9050610d608185856111d4565b600191505092915050565b6000600160008473ffffffffffffffffffffffffffffffffffffffff1673ffffffffffffffffffffffffffffffffffffffff16815260200190815260200160002060008373ffffffffffffffffffffffffffffffffffffffff1673ffffffffffffffffffffffffffffffffffffffff16815260200190815260200160002054905092915050565b60068181548110610e0257600080fd5b906000526020600020016000915054906101000a900473ffffffffffffffffffffffffffffffffffffffff1681565b600033905090565b600073ffffffffffffffffffffffffffffffffffffffff168373ffffffffffffffffffffffffffffffffffffffff1603610ea8576040517f08c379a0000000000000000000000000000000000000000000000000000000008152600401610e9f90612c9d565b60405180910390fd5b600073ffffffffffffffffffffffffffffffffffffffff168273ffffffffffffffffffffffffffffffffffffffff1603610f17576040517f08c379a0000000000000000000000000000000000000000000000000000000008152600401610f0e90612d2f565b60405180910390fd5b80600160008573ffffffffffffffffffffffffffffffffffffffff1673ffffffffffffffffffffffffffffffffffffffff16815260200190815260200160002060008473ffffffffffffffffffffffffffffffffffffffff1673ffffffffffffffffffffffffffffffffffffffff168152602001908152602001600020819055508173ffffffffffffffffffffffffffffffffffffffff168373ffffffffffffffffffffffffffffffffffffffff167f8c5be1e5ebec7d5bd14f71427d1e84f3dd0314c0f7b2291e5b200ac8c7c3b92583604051610ff59190611f67565b60405180910390a3505050565b600061100c611a86565b905060008151905060008061101f611cc1565b90505b60038110156111425760008461104485858061103d90612b51565b9650611d95565b8151811061105557611054612b22565b5b602002602001015190506000600760008373ffffffffffffffffffffffffffffffffffffffff1673ffffffffffffffffffffffffffffffffffffffff16815260200190815260200160002090508060000160019054906101000a900460ff1661113b5760018160000160016101000a81548160ff02191690831515021790555060088054905081600101819055506008805490508273ffffffffffffffffffffffffffffffffffffffff167fb54203a49d362ca51966a45a58cd0a64cf0107259da54042db7d15e57177616e60405160405180910390a3828061113790612b51565b9350505b5050611022565b50505050565b60006111548484610d6b565b90507fffffffffffffffffffffffffffffffffffffffffffffffffffffffffffffffff81146111ce57818110156111c0576040517f08c379a00000000000000000000000000000000000000000000000000000000081526004016111b790612d9b565b60405180910390fd5b6111cd8484848403610e39565b5b50505050565b600073ffffffffffffffffffffffffffffffffffffffff168373ffffffffffffffffffffffffffffffffffffffff1603611243576040517f08c379a000000000000000000000000000000000000000000000000000000000815260040161123a90612e2d565b60405180910390fd5b600073ffffffffffffffffffffffffffffffffffffffff168273ffffffffffffffffffffffffffffffffffffffff16036112b2576040517f08c379a00000000000000000000000000000000000000000000000000000000081526004016112a990612ebf565b60405180910390fd5b6112bd838383611dd6565b60008060008573ffffffffffffffffffffffffffffffffffffffff1673ffffffffffffffffffffffffffffffffffffffff16815260200190815260200160002054905081811015611343576040517f08c379a000000000000000000000000000000000000000000000000000000000815260040161133a90612f51565b60405180910390fd5b8181036000808673ffffffffffffffffffffffffffffffffffffffff1673ffffffffffffffffffffffffffffffffffffffff16815260200190815260200160002081905550816000808573ffffffffffffffffffffffffffffffffffffffff1673ffffffffffffffffffffffffffffffffffffffff168152602001908152602001600020600082825401925050819055508273ffffffffffffffffffffffffffffffffffffffff168473ffffffffffffffffffffffffffffffffffffffff167fddf252ad1be2c89b69c2b068fc378daa952ba7f163c4a11628f55a4df523b3ef846040516114319190611f67565b60405180910390a3611444848484611ddb565b50505050565b600080600090505b6008805490508110156114f357826040516020016114709190612fad565b604051602081830303815290604052805190602001206008828154811061149a57611499612b22565b5b90600052602060002090600202016000016040516020016114bb9190613047565b60405160208183030381529060405280519060200120036114e05760019150506114f9565b80806114eb90612b51565b915050611452565b50600090505b919050565b60606000825167ffffffffffffffff81111561151d5761151c6126ac565b5b60405190808252806020026020018201604052801561154b5781602001602082028036833780820191505090505b50905060005b83518110156116475760005b6008805490508110156116335784828151811061157d5761157c612b22565b5b60200260200101516040516020016115959190612fad565b60405160208183030381529060405280519060200120600882815481106115bf576115be612b22565b5b90600052602060002090600202016000016040516020016115e09190613047565b6040516020818303038152906040528051906020012003611620578083838151811061160f5761160e612b22565b5b602002602001018181525050611633565b808061162b90612b51565b91505061155d565b50808061163f90612b51565b915050611551565b5080915050919050565b600060018310611662576001611664565b825b9050815181146116a9576040517f08c379a00000000000000000000000000000000000000000000000000000000081526004016116a0906130aa565b60405180910390fd5b60008251146117a85760005b82518110156117a657838382815181106116d2576116d1612b22565b5b60200260200101511061171a576040517f08c379a000000000000000000000000000000000000000000000000000000000815260040161171190613116565b60405180910390fd5b60038411611729576000611737565b6003846117369190613136565b5b83828151811061174a57611749612b22565b5b60200260200101511015611793576040517f08c379a000000000000000000000000000000000000000000000000000000000815260040161178a90613116565b60405180910390fd5b808061179e90612b51565b9150506116b5565b505b505050565b600073ffffffffffffffffffffffffffffffffffffffff168273ffffffffffffffffffffffffffffffffffffffff160361181c576040517f08c379a0000000000000000000000000000000000000000000000000000000008152600401611813906131b6565b60405180910390fd5b61182860008383611dd6565b806002600082825461183a9190612534565b92505081905550806000808473ffffffffffffffffffffffffffffffffffffffff1673ffffffffffffffffffffffffffffffffffffffff168152602001908152602001600020600082825401925050819055508173ffffffffffffffffffffffffffffffffffffffff16600073ffffffffffffffffffffffffffffffffffffffff167fddf252ad1be2c89b69c2b068fc378daa952ba7f163c4a11628f55a4df523b3ef836040516118eb9190611f67565b60405180910390a36118ff60008383611ddb565b5050565b60006008805490509050600080600090505b600680549050811015611a26576000600760006006848154811061193c5761193b612b22565b5b9060005260206000200160009054906101000a900473ffffffffffffffffffffffffffffffffffffffff1673ffffffffffffffffffffffffffffffffffffffff1673ffffffffffffffffffffffffffffffffffffffff16815260200190815260200160002090508060000160019054906101000a900460ff1680156119c45750838160010154105b15611a125780600101549350600682815481106119e4576119e3612b22565b5b9060005260206000200160009054906101000a900473ffffffffffffffffffffffffffffffffffffffff1692505b508080611a1e90612b51565b915050611915565b506000600760008373ffffffffffffffffffffffffffffffffffffffff1673ffffffffffffffffffffffffffffffffffffffff16815260200190815260200160002060000160016101000a81548160ff0219169083151502179055505050565b6060600060068054905067ffffffffffffffff811115611aa957611aa86126ac565b5b604051908082528060200260200182016040528015611ad75781602001602082028036833780820191505090505b5090506000805b600680549050811015611be357611b3260068281548110611b0257611b01612b22565b5b9060005260206000200160009054906101000a900473ffffffffffffffffffffffffffffffffffffffff16611de0565b15611bd05760068181548110611b4b57611b4a612b22565b5b9060005260206000200160009054906101000a900473ffffffffffffffffffffffffffffffffffffffff16838380611b8290612b51565b945081518110611b9557611b94612b22565b5b602002602001019073ffffffffffffffffffffffffffffffffffffffff16908173ffffffffffffffffffffffffffffffffffffffff16815250505b8080611bdb90612b51565b915050611ade565b5060008167ffffffffffffffff811115611c0057611bff6126ac565b5b604051908082528060200260200182016040528015611c2e5781602001602082028036833780820191505090505b50905060005b82811015611cb757838181518110611c4f57611c4e612b22565b5b6020026020010151828281518110611c6a57611c69612b22565b5b602002602001019073ffffffffffffffffffffffffffffffffffffffff16908173ffffffffffffffffffffffffffffffffffffffff16815250508080611caf90612b51565b915050611c34565b5080935050505090565b6000806000905060005b600680549050811015611d8d576007600060068381548110611cf057611cef612b22565b5b9060005260206000200160009054906101000a900473ffffffffffffffffffffffffffffffffffffffff1673ffffffffffffffffffffffffffffffffffffffff1673ffffffffffffffffffffffffffffffffffffffff16815260200190815260200160002060000160019054906101000a900460ff1615611d7a578180611d7690612b51565b9250505b8080611d8590612b51565b915050611ccb565b508091505090565b6000824283604051602001611dab9291906131f7565b6040516020818303038152906040528051906020012060001c611dce9190613252565b905092915050565b505050565b505050565b600080600760008473ffffffffffffffffffffffffffffffffffffffff1673ffffffffffffffffffffffffffffffffffffffff16815260200190815260200160002090508060000160019054906101000a900460ff1680611e5057508060000160009054906101000a900460ff16155b15611e5f576000915050611f49565b600060088054905090505b600081118015611e9b57506003600880549050118015611e9a57506003600880549050611e979190613136565b81115b5b15611f42578373ffffffffffffffffffffffffffffffffffffffff166008600183611ec69190613136565b81548110611ed757611ed6612b22565b5b906000526020600020906002020160010160009054906101000a900473ffffffffffffffffffffffffffffffffffffffff1673ffffffffffffffffffffffffffffffffffffffff1603611f2f57600092505050611f49565b8080611f3a90613283565b915050611e6a565b5060019150505b919050565b6000819050919050565b611f6181611f4e565b82525050565b6000602082019050611f7c6000830184611f58565b92915050565b600081519050919050565b600082825260208201905092915050565b60005b83811015611fbc578082015181840152602081019050611fa1565b60008484015250505050565b6000601f19601f8301169050919050565b6000611fe482611f82565b611fee8185611f8d565b9350611ffe818560208601611f9e565b61200781611fc8565b840191505092915050565b6000602082019050818103600083015261202c8184611fd9565b905092915050565b6000604051905090565b600080fd5b600080fd5b600073ffffffffffffffffffffffffffffffffffffffff82169050919050565b600061207382612048565b9050919050565b61208381612068565b811461208e57600080fd5b50565b6000813590506120a08161207a565b92915050565b6120af81611f4e565b81146120ba57600080fd5b50565b6000813590506120cc816120a6565b92915050565b600080604083850312156120e9576120e861203e565b5b60006120f785828601612091565b9250506020612108858286016120bd565b9150509250929050565b60008115159050919050565b61212781612112565b82525050565b6000602082019050612142600083018461211e565b92915050565b6000806000606084860312156121615761216061203e565b5b600061216f86828701612091565b935050602061218086828701612091565b9250506040612191868287016120bd565b9150509250925092565b600060ff82169050919050565b6121b18161219b565b82525050565b60006020820190506121cc60008301846121a8565b92915050565b600080fd5b600080fd5b600080fd5b60008083601f8401126121f7576121f66121d2565b5b8235905067ffffffffffffffff811115612214576122136121d7565b5b6020830191508360018202830111156122305761222f6121dc565b5b9250929050565b60008083601f84011261224d5761224c6121d2565b5b8235905067ffffffffffffffff81111561226a576122696121d7565b5b602083019150836020820283011115612286576122856121dc565b5b9250929050565b600080600080604085870312156122a7576122a661203e565b5b600085013567ffffffffffffffff8111156122c5576122c4612043565b5b6122d1878288016121e1565b9450945050602085013567ffffffffffffffff8111156122f4576122f3612043565b5b61230087828801612237565b925092505092959194509250565b6000602082840312156123245761232361203e565b5b6000612332848285016120bd565b91505092915050565b61234481612068565b82525050565b600060408201905081810360008301526123648185611fd9565b9050612373602083018461233b565b9392505050565b6000602082840312156123905761238f61203e565b5b600061239e84828501612091565b91505092915050565b60006060820190506123bc600083018661211e565b6123c9602083018561211e565b6123d66040830184611f58565b949350505050565b600080604083850312156123f5576123f461203e565b5b600061240385828601612091565b925050602061241485828601612091565b9150509250929050565b6000602082019050612433600083018461233b565b92915050565b7f4e487b7100000000000000000000000000000000000000000000000000000000600052602260045260246000fd5b6000600282049050600182168061248057607f821691505b60208210810361249357612492612439565b5b50919050565b7f416c726561647920726567697374657265640000000000000000000000000000600082015250565b60006124cf601283611f8d565b91506124da82612499565b602082019050919050565b600060208201905081810360008301526124fe816124c2565b9050919050565b7f4e487b7100000000000000000000000000000000000000000000000000000000600052601160045260246000fd5b600061253f82611f4e565b915061254a83611f4e565b925082820190508082111561256257612561612505565b5b92915050565b7f4e6f7420656e6f75676820636c69656e74730000000000000000000000000000600082015250565b600061259e601283611f8d565b91506125a982612568565b602082019050919050565b600060208201905081810360008301526125cd81612591565b9050919050565b7f4e6f206c6561726e696e67207269676874000000000000000000000000000000600082015250565b600061260a601183611f8d565b9150612615826125d4565b602082019050919050565b60006020820190508181036000830152612639816125fd565b9050919050565b7f4d6f64656c20616c726561647920657869737473000000000000000000000000600082015250565b6000612676601483611f8d565b915061268182612640565b602082019050919050565b600060208201905081810360008301526126a581612669565b9050919050565b7f4e487b7100000000000000000000000000000000000000000000000000000000600052604160045260246000fd5b6126e482611fc8565b810181811067ffffffffffffffff82111715612703576127026126ac565b5b80604052505050565b6000612716612034565b905061272282826126db565b919050565b600067ffffffffffffffff821115612742576127416126ac565b5b602082029050602081019050919050565b600080fd5b600067ffffffffffffffff821115612773576127726126ac565b5b61277c82611fc8565b9050602081019050919050565b82818337600083830152505050565b60006127ab6127a684612758565b61270c565b9050828152602081018484840111156127c7576127c6612753565b5b6127d2848285612789565b509392505050565b600082601f8301126127ef576127ee6121d2565b5b81356127ff848260208601612798565b91505092915050565b600061281b61281684612727565b61270c565b9050808382526020820190506020840283018581111561283e5761283d6121dc565b5b835b8181101561288557803567ffffffffffffffff811115612863576128626121d2565b5b80860161287089826127da565b85526020850194505050602081019050612840565b5050509392505050565b600061289c368484612808565b905092915050565b60008190508160005260206000209050919050565b60006020601f8301049050919050565b600082821b905092915050565b6000600883026129067fffffffffffffffffffffffffffffffffffffffffffffffffffffffffffffffff826128c9565b61291086836128c9565b95508019841693508086168417925050509392505050565b6000819050919050565b600061294d61294861294384611f4e565b612928565b611f4e565b9050919050565b6000819050919050565b61296783612932565b61297b61297382612954565b8484546128d6565b825550505050565b600090565b612990612983565b61299b81848461295e565b505050565b5b818110156129bf576129b4600082612988565b6001810190506129a1565b5050565b601f821115612a04576129d5816128a4565b6129de846128b9565b810160208510156129ed578190505b612a016129f9856128b9565b8301826129a0565b50505b505050565b600082821c905092915050565b6000612a2760001984600802612a09565b1980831691505092915050565b6000612a408383612a16565b9150826002028217905092915050565b612a5982611f82565b67ffffffffffffffff811115612a7257612a716126ac565b5b612a7c8254612468565b612a878282856129c3565b600060209050601f831160018114612aba5760008415612aa8578287015190505b612ab28582612a34565b865550612b1a565b601f198416612ac8866128a4565b60005b82811015612af057848901518255600182019150602085019450602081019050612acb565b86831015612b0d5784890151612b09601f891682612a16565b8355505b6001600288020188555050505b505050505050565b7f4e487b7100000000000000000000000000000000000000000000000000000000600052603260045260246000fd5b6000612b5c82611f4e565b91507fffffffffffffffffffffffffffffffffffffffffffffffffffffffffffffffff8203612b8e57612b8d612505565b5b600182019050919050565b7f45524332303a2064656372656173656420616c6c6f77616e63652062656c6f7760008201527f207a65726f000000000000000000000000000000000000000000000000000000602082015250565b6000612bf5602583611f8d565b9150612c0082612b99565b604082019050919050565b60006020820190508181036000830152612c2481612be8565b9050919050565b7f45524332303a20617070726f76652066726f6d20746865207a65726f2061646460008201527f7265737300000000000000000000000000000000000000000000000000000000602082015250565b6000612c87602483611f8d565b9150612c9282612c2b565b604082019050919050565b60006020820190508181036000830152612cb681612c7a565b9050919050565b7f45524332303a20617070726f766520746f20746865207a65726f20616464726560008201527f7373000000000000000000000000000000000000000000000000000000000000602082015250565b6000612d19602283611f8d565b9150612d2482612cbd565b604082019050919050565b60006020820190508181036000830152612d4881612d0c565b9050919050565b7f45524332303a20696e73756666696369656e7420616c6c6f77616e6365000000600082015250565b6000612d85601d83611f8d565b9150612d9082612d4f565b602082019050919050565b60006020820190508181036000830152612db481612d78565b9050919050565b7f45524332303a207472616e736665722066726f6d20746865207a65726f20616460008201527f6472657373000000000000000000000000000000000000000000000000000000602082015250565b6000612e17602583611f8d565b9150612e2282612dbb565b604082019050919050565b60006020820190508181036000830152612e4681612e0a565b9050919050565b7f45524332303a207472616e7366657220746f20746865207a65726f206164647260008201527f6573730000000000000000000000000000000000000000000000000000000000602082015250565b6000612ea9602383611f8d565b9150612eb482612e4d565b604082019050919050565b60006020820190508181036000830152612ed881612e9c565b9050919050565b7f45524332303a207472616e7366657220616d6f756e742065786365656473206260008201527f616c616e63650000000000000000000000000000000000000000000000000000602082015250565b6000612f3b602683611f8d565b9150612f4682612edf565b604082019050919050565b60006020820190508181036000830152612f6a81612f2e565b9050919050565b600081905092915050565b6000612f8782611f82565b612f918185612f71565b9350612fa1818560208601611f9e565b80840191505092915050565b6000612fb98284612f7c565b915081905092915050565b60008154612fd181612468565b612fdb8186612f71565b94506001821660008114612ff6576001811461300b5761303e565b60ff198316865281151582028601935061303e565b613014856128a4565b60005b8381101561303657815481890152600182019150602081019050613017565b838801955050505b50505092915050565b60006130538284612fc4565b915081905092915050565b7f496e76616c6964206e756d626572206f6620766f746500000000000000000000600082015250565b6000613094601683611f8d565b915061309f8261305e565b602082019050919050565b600060208201905081810360008301526130c381613087565b9050919050565b7f496e76616c6964206d6f64656c20696e64657800000000000000000000000000600082015250565b6000613100601383611f8d565b915061310b826130ca565b602082019050919050565b6000602082019050818103600083015261312f816130f3565b9050919050565b600061314182611f4e565b915061314c83611f4e565b925082820390508181111561316457613163612505565b5b92915050565b7f45524332303a206d696e7420746f20746865207a65726f206164647265737300600082015250565b60006131a0601f83611f8d565b91506131ab8261316a565b602082019050919050565b600060208201905081810360008301526131cf81613193565b9050919050565b6000819050919050565b6131f16131ec82611f4e565b6131d6565b82525050565b600061320382856131e0565b60208201915061321382846131e0565b6020820191508190509392505050565b7f4e487b7100000000000000000000000000000000000000000000000000000000600052601260045260246000fd5b600061325d82611f4e565b915061326883611f4e565b92508261327857613277613223565b5b828206905092915050565b600061328e82611f4e565b9150600082036132a1576132a0612505565b5b60018203905091905056fea26469706673582212201db48ff15b25c647167de40161bd240b27e993f50b60cb42676d07c9f58cba9d64736f6c63430008120033",
  "linkReferences": {},
  "deployedLinkReferences": {}
}