{
  "_format": "hh-sol-artifact-1",
  "contractName": "FederatedLearning",
  "sourceName": "contracts/FederatedLearning.sol",
  "abi": [
    {
      "inputs": [
        {
          "internalType": "string",
          "name": "_initialModelCID",
          "type": "string"
        },
        {
          "internalType": "uint256",
          "name": "_ClientNumThres",
          "type": "uint256"
        },
        {
          "internalType": "uint256",
          "name": "_ClientWithRightNum",
          "type": "uint256"
        },
        {
          "internalType": "uint256",
          "name": "_VotableModelNum",
          "type": "uint256"
        },
        {
          "internalType": "uint256",
          "name": "_VoteNum",
          "type": "uint256"
        }
      ],
      "stateMutability": "nonpayable",
      "type": "constructor"
    },
    {
      "anonymous": false,
      "inputs": [
        {
          "indexed": true,
          "internalType": "address",
          "name": "owner",
          "type": "address"
        },
        {
          "indexed": true,
          "internalType": "address",
          "name": "spender",
          "type": "address"
        },
        {
          "indexed": false,
          "internalType": "uint256",
          "name": "value",
          "type": "uint256"
        }
      ],
      "name": "Approval",
      "type": "event"
    },
    {
      "anonymous": false,
      "inputs": [
        {
          "indexed": true,
          "internalType": "address",
          "name": "client",
          "type": "address"
        },
        {
          "indexed": true,
          "internalType": "uint256",
          "name": "latestModelIndex",
          "type": "uint256"
        }
      ],
      "name": "LearningRightGranted",
      "type": "event"
    },
    {
      "anonymous": false,
      "inputs": [
        {
          "indexed": true,
          "internalType": "address",
          "name": "from",
          "type": "address"
        },
        {
          "indexed": true,
          "internalType": "address",
          "name": "to",
          "type": "address"
        },
        {
          "indexed": false,
          "internalType": "uint256",
          "name": "value",
          "type": "uint256"
        }
      ],
      "name": "Transfer",
      "type": "event"
    },
    {
      "inputs": [],
      "name": "ClientNumThres",
      "outputs": [
        {
          "internalType": "uint256",
          "name": "",
          "type": "uint256"
        }
      ],
      "stateMutability": "view",
      "type": "function"
    },
    {
      "inputs": [],
      "name": "ClientWithRightNum",
      "outputs": [
        {
          "internalType": "uint256",
          "name": "",
          "type": "uint256"
        }
      ],
      "stateMutability": "view",
      "type": "function"
    },
    {
      "inputs": [],
      "name": "VotableModelNum",
      "outputs": [
        {
          "internalType": "uint256",
          "name": "",
          "type": "uint256"
        }
      ],
      "stateMutability": "view",
      "type": "function"
    },
    {
      "inputs": [],
      "name": "VoteNum",
      "outputs": [
        {
          "internalType": "uint256",
          "name": "",
          "type": "uint256"
        }
      ],
      "stateMutability": "view",
      "type": "function"
    },
    {
      "inputs": [
        {
          "internalType": "address",
          "name": "owner",
          "type": "address"
        },
        {
          "internalType": "address",
          "name": "spender",
          "type": "address"
        }
      ],
      "name": "allowance",
      "outputs": [
        {
          "internalType": "uint256",
          "name": "",
          "type": "uint256"
        }
      ],
      "stateMutability": "view",
      "type": "function"
    },
    {
      "inputs": [
        {
          "internalType": "address",
          "name": "spender",
          "type": "address"
        },
        {
          "internalType": "uint256",
          "name": "amount",
          "type": "uint256"
        }
      ],
      "name": "approve",
      "outputs": [
        {
          "internalType": "bool",
          "name": "",
          "type": "bool"
        }
      ],
      "stateMutability": "nonpayable",
      "type": "function"
    },
    {
      "inputs": [
        {
          "internalType": "address",
          "name": "account",
          "type": "address"
        }
      ],
      "name": "balanceOf",
      "outputs": [
        {
          "internalType": "uint256",
          "name": "",
          "type": "uint256"
        }
      ],
      "stateMutability": "view",
      "type": "function"
    },
    {
      "inputs": [
        {
          "internalType": "address",
          "name": "",
          "type": "address"
        }
      ],
      "name": "clientInfo",
      "outputs": [
        {
          "internalType": "uint256",
          "name": "index",
          "type": "uint256"
        },
        {
          "internalType": "bool",
          "name": "registered",
          "type": "bool"
        },
        {
          "internalType": "bool",
          "name": "hasLearningRight",
          "type": "bool"
        },
        {
          "internalType": "uint256",
          "name": "latestModelIndex",
          "type": "uint256"
        }
      ],
      "stateMutability": "view",
      "type": "function"
    },
    {
      "inputs": [
        {
          "internalType": "uint256",
          "name": "",
          "type": "uint256"
        }
      ],
      "name": "clients",
      "outputs": [
        {
          "internalType": "address",
          "name": "",
          "type": "address"
        }
      ],
      "stateMutability": "view",
      "type": "function"
    },
    {
      "inputs": [],
      "name": "decimals",
      "outputs": [
        {
          "internalType": "uint8",
          "name": "",
          "type": "uint8"
        }
      ],
      "stateMutability": "view",
      "type": "function"
    },
    {
      "inputs": [
        {
          "internalType": "address",
          "name": "spender",
          "type": "address"
        },
        {
          "internalType": "uint256",
          "name": "subtractedValue",
          "type": "uint256"
        }
      ],
      "name": "decreaseAllowance",
      "outputs": [
        {
          "internalType": "bool",
          "name": "",
          "type": "bool"
        }
      ],
      "stateMutability": "nonpayable",
      "type": "function"
    },
    {
      "inputs": [
        {
          "internalType": "address",
          "name": "spender",
          "type": "address"
        },
        {
          "internalType": "uint256",
          "name": "addedValue",
          "type": "uint256"
        }
      ],
      "name": "increaseAllowance",
      "outputs": [
        {
          "internalType": "bool",
          "name": "",
          "type": "bool"
        }
      ],
      "stateMutability": "nonpayable",
      "type": "function"
    },
    {
      "inputs": [],
      "name": "initialModelCID",
      "outputs": [
        {
          "internalType": "string",
          "name": "",
          "type": "string"
        }
      ],
      "stateMutability": "view",
      "type": "function"
    },
    {
      "inputs": [
        {
          "internalType": "uint256",
          "name": "",
          "type": "uint256"
        }
      ],
      "name": "models",
      "outputs": [
        {
          "internalType": "string",
          "name": "CID",
          "type": "string"
        },
        {
          "internalType": "uint256",
          "name": "authorIndex",
          "type": "uint256"
        }
      ],
      "stateMutability": "view",
      "type": "function"
    },
    {
      "inputs": [],
      "name": "name",
      "outputs": [
        {
          "internalType": "string",
          "name": "",
          "type": "string"
        }
      ],
      "stateMutability": "view",
      "type": "function"
    },
    {
      "inputs": [],
      "name": "register",
      "outputs": [],
      "stateMutability": "nonpayable",
      "type": "function"
    },
    {
      "inputs": [
        {
          "internalType": "string",
          "name": "_newModelCID",
          "type": "string"
        },
        {
          "internalType": "string[]",
          "name": "_votedModelCIDs",
          "type": "string[]"
        }
      ],
      "name": "submitModel",
      "outputs": [],
      "stateMutability": "nonpayable",
      "type": "function"
    },
    {
      "inputs": [],
      "name": "symbol",
      "outputs": [
        {
          "internalType": "string",
          "name": "",
          "type": "string"
        }
      ],
      "stateMutability": "view",
      "type": "function"
    },
    {
      "inputs": [],
      "name": "totalSupply",
      "outputs": [
        {
          "internalType": "uint256",
          "name": "",
          "type": "uint256"
        }
      ],
      "stateMutability": "view",
      "type": "function"
    },
    {
      "inputs": [
        {
          "internalType": "address",
          "name": "to",
          "type": "address"
        },
        {
          "internalType": "uint256",
          "name": "amount",
          "type": "uint256"
        }
      ],
      "name": "transfer",
      "outputs": [
        {
          "internalType": "bool",
          "name": "",
          "type": "bool"
        }
      ],
      "stateMutability": "nonpayable",
      "type": "function"
    },
    {
      "inputs": [
        {
          "internalType": "address",
          "name": "from",
          "type": "address"
        },
        {
          "internalType": "address",
          "name": "to",
          "type": "address"
        },
        {
          "internalType": "uint256",
          "name": "amount",
          "type": "uint256"
        }
      ],
      "name": "transferFrom",
      "outputs": [
        {
          "internalType": "bool",
          "name": "",
          "type": "bool"
        }
      ],
      "stateMutability": "nonpayable",
      "type": "function"
    }
  ],
  "bytecode": "0x60806040523480156200001157600080fd5b5060405162003a7b38038062003a7b8339818101604052810190620000379190620002d0565b6040518060400160405280601881526020017f466564657261746564204c6561726e696e6720546f6b656e00000000000000008152506040518060400160405280600381526020017f464c5400000000000000000000000000000000000000000000000000000000008152508160039081620000b49190620005b8565b508060049081620000c69190620005b8565b5050508460099081620000da9190620005b8565b508360058190555082600681905550816007819055508060088190555050505050506200069f565b6000604051905090565b600080fd5b600080fd5b600080fd5b600080fd5b6000601f19601f8301169050919050565b7f4e487b7100000000000000000000000000000000000000000000000000000000600052604160045260246000fd5b6200016b8262000120565b810181811067ffffffffffffffff821117156200018d576200018c62000131565b5b80604052505050565b6000620001a262000102565b9050620001b0828262000160565b919050565b600067ffffffffffffffff821115620001d357620001d262000131565b5b620001de8262000120565b9050602081019050919050565b60005b838110156200020b578082015181840152602081019050620001ee565b60008484015250505050565b60006200022e6200022884620001b5565b62000196565b9050828152602081018484840111156200024d576200024c6200011b565b5b6200025a848285620001eb565b509392505050565b600082601f8301126200027a576200027962000116565b5b81516200028c84826020860162000217565b91505092915050565b6000819050919050565b620002aa8162000295565b8114620002b657600080fd5b50565b600081519050620002ca816200029f565b92915050565b600080600080600060a08688031215620002ef57620002ee6200010c565b5b600086015167ffffffffffffffff81111562000310576200030f62000111565b5b6200031e8882890162000262565b95505060206200033188828901620002b9565b94505060406200034488828901620002b9565b93505060606200035788828901620002b9565b92505060806200036a88828901620002b9565b9150509295509295909350565b600081519050919050565b7f4e487b7100000000000000000000000000000000000000000000000000000000600052602260045260246000fd5b60006002820490506001821680620003ca57607f821691505b602082108103620003e057620003df62000382565b5b50919050565b60008190508160005260206000209050919050565b60006020601f8301049050919050565b600082821b905092915050565b6000600883026200044a7fffffffffffffffffffffffffffffffffffffffffffffffffffffffffffffffff826200040b565b6200045686836200040b565b95508019841693508086168417925050509392505050565b6000819050919050565b600062000499620004936200048d8462000295565b6200046e565b62000295565b9050919050565b6000819050919050565b620004b58362000478565b620004cd620004c482620004a0565b84845462000418565b825550505050565b600090565b620004e4620004d5565b620004f1818484620004aa565b505050565b5b8181101562000519576200050d600082620004da565b600181019050620004f7565b5050565b601f82111562000568576200053281620003e6565b6200053d84620003fb565b810160208510156200054d578190505b620005656200055c85620003fb565b830182620004f6565b50505b505050565b600082821c905092915050565b60006200058d600019846008026200056d565b1980831691505092915050565b6000620005a883836200057a565b9150826002028217905092915050565b620005c38262000377565b67ffffffffffffffff811115620005df57620005de62000131565b5b620005eb8254620003b1565b620005f88282856200051d565b600060209050601f8311600181146200063057600084156200061b578287015190505b6200062785826200059a565b86555062000697565b601f1984166200064086620003e6565b60005b828110156200066a5784890151825560018201915060208501945060208101905062000643565b868310156200068a578489015162000686601f8916826200057a565b8355505b6001600288020188555050505b505050505050565b6133cc80620006af6000396000f3fe608060405234801561001057600080fd5b50600436106101365760003560e01c806342279a79116100b85780637b7391a71161007c5780637b7391a71461035757806395d89b4114610375578063a457c2d714610393578063a9059cbb146103c3578063dd62ed3e146103f3578063f88af21d1461042357610136565b806342279a791461028957806346e1531f146102a75780636a030ca9146102c357806370a08231146102f4578063758dde961461032457610136565b80631aa3a008116100ff5780631aa3a008146101e357806323b872dd146101ed578063313ce5671461021d578063395093511461023b5780633e6cebca1461026b57610136565b806223fca31461013b57806303c462cf1461015957806306fdde0314610177578063095ea7b31461019557806318160ddd146101c5575b600080fd5b610143610453565b6040516101509190611fd7565b60405180910390f35b610161610459565b60405161016e9190611fd7565b60405180910390f35b61017f61045f565b60405161018c9190612082565b60405180910390f35b6101af60048036038101906101aa9190612142565b6104f1565b6040516101bc919061219d565b60405180910390f35b6101cd610514565b6040516101da9190611fd7565b60405180910390f35b6101eb61051e565b005b610207600480360381019061020291906121b8565b6106d1565b604051610214919061219d565b60405180910390f35b610225610700565b6040516102329190612227565b60405180910390f35b61025560048036038101906102509190612142565b610709565b604051610262919061219d565b60405180910390f35b610273610740565b6040516102809190611fd7565b60405180910390f35b610291610746565b60405161029e9190612082565b60405180910390f35b6102c160048036038101906102bc91906122fd565b6107d4565b005b6102dd60048036038101906102d8919061237e565b610af3565b6040516102eb9291906123ab565b60405180910390f35b61030e600480360381019061030991906123db565b610baf565b60405161031b9190611fd7565b60405180910390f35b61033e600480360381019061033991906123db565b610bf7565b60405161034e9493929190612408565b60405180910390f35b61035f610c41565b60405161036c9190611fd7565b60405180910390f35b61037d610c47565b60405161038a9190612082565b60405180910390f35b6103ad60048036038101906103a89190612142565b610cd9565b6040516103ba919061219d565b60405180910390f35b6103dd60048036038101906103d89190612142565b610d50565b6040516103ea919061219d565b60405180910390f35b61040d6004803603810190610408919061244d565b610d73565b60405161041a9190611fd7565b60405180910390f35b61043d6004803603810190610438919061237e565b610dfa565b60405161044a919061249c565b60405180910390f35b60055481565b60075481565b60606003805461046e906124e6565b80601f016020809104026020016040519081016040528092919081815260200182805461049a906124e6565b80156104e75780601f106104bc576101008083540402835291602001916104e7565b820191906000526020600020905b8154815290600101906020018083116104ca57829003601f168201915b5050505050905090565b6000806104fc610e39565b9050610509818585610e41565b600191505092915050565b6000600254905090565b600b60003373ffffffffffffffffffffffffffffffffffffffff1673ffffffffffffffffffffffffffffffffffffffff16815260200190815260200160002060010160009054906101000a900460ff16156105ae576040517f08c379a00000000000000000000000000000000000000000000000000000000081526004016105a590612563565b60405180910390fd5b6001600b60003373ffffffffffffffffffffffffffffffffffffffff1673ffffffffffffffffffffffffffffffffffffffff16815260200190815260200160002060010160006101000a81548160ff021916908315150217905550600a80549050600b60003373ffffffffffffffffffffffffffffffffffffffff1673ffffffffffffffffffffffffffffffffffffffff16815260200190815260200160002060000181905550600a339080600181540180825580915050600190039060005260206000200160009091909190916101000a81548173ffffffffffffffffffffffffffffffffffffffff021916908373ffffffffffffffffffffffffffffffffffffffff160217905550600554600a80549050036106cf576106ce61100a565b5b565b6000806106dc610e39565b90506106e985828561120c565b6106f4858585611298565b60019150509392505050565b60006012905090565b600080610714610e39565b90506107358185856107268589610d73565b61073091906125b2565b610e41565b600191505092915050565b60085481565b60098054610753906124e6565b80601f016020809104026020016040519081016040528092919081815260200182805461077f906124e6565b80156107cc5780601f106107a1576101008083540402835291602001916107cc565b820191906000526020600020905b8154815290600101906020018083116107af57829003601f168201915b505050505081565b600554600a80549050101561081e576040517f08c379a000000000000000000000000000000000000000000000000000000000815260040161081590612632565b60405180910390fd5b6000600b60003373ffffffffffffffffffffffffffffffffffffffff1673ffffffffffffffffffffffffffffffffffffffff16815260200190815260200160002090508060010160019054906101000a900460ff166108b2576040517f08c379a00000000000000000000000000000000000000000000000000000000081526004016108a99061269e565b60405180910390fd5b6108ff85858080601f016020809104026020016040519081016040528093929190818152602001838380828437600081840152601f19601f8201169050808301925050505050505061150e565b1561093f576040517f08c379a00000000000000000000000000000000000000000000000000000000081526004016109369061270a565b60405180910390fd5b6000610956848490610951919061290d565b6115c2565b9050610966826002015482611715565b600c604051806040016040528088888080601f016020809104026020016040519081016040528093929190818152602001838380828437600081840152601f19601f820116905080830192505050505050508152602001846000015481525090806001815401808255809150506001900390600052602060002090600202016000909190919091506000820151816000019081610a039190612ace565b5060208201518160010155505060008260010160016101000a81548160ff02191690831515021790555060005b8151811015610ada576000600c838381518110610a5057610a4f612ba0565b5b602002602001015181548110610a6957610a68612ba0565b5b90600052602060002090600202019050610ac6600a826001015481548110610a9457610a93612ba0565b5b9060005260206000200160009054906101000a900473ffffffffffffffffffffffffffffffffffffffff166001611875565b508080610ad290612bcf565b915050610a30565b50610ae36119cb565b610aeb61100a565b505050505050565b600c8181548110610b0357600080fd5b9060005260206000209060020201600091509050806000018054610b26906124e6565b80601f0160208091040260200160405190810160405280929190818152602001828054610b52906124e6565b8015610b9f5780601f10610b7457610100808354040283529160200191610b9f565b820191906000526020600020905b815481529060010190602001808311610b8257829003601f168201915b5050505050908060010154905082565b60008060008373ffffffffffffffffffffffffffffffffffffffff1673ffffffffffffffffffffffffffffffffffffffff168152602001908152602001600020549050919050565b600b6020528060005260406000206000915090508060000154908060010160009054906101000a900460ff16908060010160019054906101000a900460ff16908060020154905084565b60065481565b606060048054610c56906124e6565b80601f0160208091040260200160405190810160405280929190818152602001828054610c82906124e6565b8015610ccf5780601f10610ca457610100808354040283529160200191610ccf565b820191906000526020600020905b815481529060010190602001808311610cb257829003601f168201915b5050505050905090565b600080610ce4610e39565b90506000610cf28286610d73565b905083811015610d37576040517f08c379a0000000000000000000000000000000000000000000000000000000008152600401610d2e90612c89565b60405180910390fd5b610d448286868403610e41565b60019250505092915050565b600080610d5b610e39565b9050610d68818585611298565b600191505092915050565b6000600160008473ffffffffffffffffffffffffffffffffffffffff1673ffffffffffffffffffffffffffffffffffffffff16815260200190815260200160002060008373ffffffffffffffffffffffffffffffffffffffff1673ffffffffffffffffffffffffffffffffffffffff16815260200190815260200160002054905092915050565b600a8181548110610e0a57600080fd5b906000526020600020016000915054906101000a900473ffffffffffffffffffffffffffffffffffffffff1681565b600033905090565b600073ffffffffffffffffffffffffffffffffffffffff168373ffffffffffffffffffffffffffffffffffffffff1603610eb0576040517f08c379a0000000000000000000000000000000000000000000000000000000008152600401610ea790612d1b565b60405180910390fd5b600073ffffffffffffffffffffffffffffffffffffffff168273ffffffffffffffffffffffffffffffffffffffff1603610f1f576040517f08c379a0000000000000000000000000000000000000000000000000000000008152600401610f1690612dad565b60405180910390fd5b80600160008573ffffffffffffffffffffffffffffffffffffffff1673ffffffffffffffffffffffffffffffffffffffff16815260200190815260200160002060008473ffffffffffffffffffffffffffffffffffffffff1673ffffffffffffffffffffffffffffffffffffffff168152602001908152602001600020819055508173ffffffffffffffffffffffffffffffffffffffff168373ffffffffffffffffffffffffffffffffffffffff167f8c5be1e5ebec7d5bd14f71427d1e84f3dd0314c0f7b2291e5b200ac8c7c3b92583604051610ffd9190611fd7565b60405180910390a3505050565b6000611014611b4e565b90506000611020611e9f565b9050806006546110309190612dcd565b82511015611073576040517f08c379a000000000000000000000000000000000000000000000000000000000815260040161106a90612e4d565b60405180910390fd5b60005b6006548210156112075760008361109a8551848061109390612bcf565b9550611f73565b815181106110ab576110aa612ba0565b5b602002602001015190506000600b6000600a84815481106110cf576110ce612ba0565b5b9060005260206000200160009054906101000a900473ffffffffffffffffffffffffffffffffffffffff1673ffffffffffffffffffffffffffffffffffffffff1673ffffffffffffffffffffffffffffffffffffffff168152602001908152602001600020905060018160010160016101000a81548160ff021916908315150217905550600c805490508160020181905550600c80549050600a838154811061117b5761117a612ba0565b5b9060005260206000200160009054906101000a900473ffffffffffffffffffffffffffffffffffffffff1673ffffffffffffffffffffffffffffffffffffffff167fb54203a49d362ca51966a45a58cd0a64cf0107259da54042db7d15e57177616e60405160405180910390a383806111f390612bcf565b9450506111fe611b4e565b94505050611076565b505050565b60006112188484610d73565b90507fffffffffffffffffffffffffffffffffffffffffffffffffffffffffffffffff81146112925781811015611284576040517f08c379a000000000000000000000000000000000000000000000000000000000815260040161127b90612eb9565b60405180910390fd5b6112918484848403610e41565b5b50505050565b600073ffffffffffffffffffffffffffffffffffffffff168373ffffffffffffffffffffffffffffffffffffffff1603611307576040517f08c379a00000000000000000000000000000000000000000000000000000000081526004016112fe90612f4b565b60405180910390fd5b600073ffffffffffffffffffffffffffffffffffffffff168273ffffffffffffffffffffffffffffffffffffffff1603611376576040517f08c379a000000000000000000000000000000000000000000000000000000000815260040161136d90612fdd565b60405180910390fd5b611381838383611fb4565b60008060008573ffffffffffffffffffffffffffffffffffffffff1673ffffffffffffffffffffffffffffffffffffffff16815260200190815260200160002054905081811015611407576040517f08c379a00000000000000000000000000000000000000000000000000000000081526004016113fe9061306f565b60405180910390fd5b8181036000808673ffffffffffffffffffffffffffffffffffffffff1673ffffffffffffffffffffffffffffffffffffffff16815260200190815260200160002081905550816000808573ffffffffffffffffffffffffffffffffffffffff1673ffffffffffffffffffffffffffffffffffffffff168152602001908152602001600020600082825401925050819055508273ffffffffffffffffffffffffffffffffffffffff168473ffffffffffffffffffffffffffffffffffffffff167fddf252ad1be2c89b69c2b068fc378daa952ba7f163c4a11628f55a4df523b3ef846040516114f59190611fd7565b60405180910390a3611508848484611fb9565b50505050565b600080600090505b600c805490508110156115b7578260405160200161153491906130cb565b60405160208183030381529060405280519060200120600c828154811061155e5761155d612ba0565b5b906000526020600020906002020160000160405160200161157f9190613165565b60405160208183030381529060405280519060200120036115a45760019150506115bd565b80806115af90612bcf565b915050611516565b50600090505b919050565b60606000825167ffffffffffffffff8111156115e1576115e061272a565b5b60405190808252806020026020018201604052801561160f5781602001602082028036833780820191505090505b50905060005b835181101561170b5760005b600c805490508110156116f75784828151811061164157611640612ba0565b5b602002602001015160405160200161165991906130cb565b60405160208183030381529060405280519060200120600c828154811061168357611682612ba0565b5b90600052602060002090600202016000016040516020016116a49190613165565b60405160208183030381529060405280519060200120036116e457808383815181106116d3576116d2612ba0565b5b6020026020010181815250506116f7565b80806116ef90612bcf565b915050611621565b50808061170390612bcf565b915050611615565b5080915050919050565b600060085483106117285760085461172a565b825b90508151811461176f576040517f08c379a0000000000000000000000000000000000000000000000000000000008152600401611766906131c8565b60405180910390fd5b60008251146118705760005b825181101561186e578383828151811061179857611797612ba0565b5b6020026020010151106117e0576040517f08c379a00000000000000000000000000000000000000000000000000000000081526004016117d790613234565b60405180910390fd5b60075484116117f05760006117ff565b600754846117fe9190612dcd565b5b83828151811061181257611811612ba0565b5b6020026020010151101561185b576040517f08c379a000000000000000000000000000000000000000000000000000000000815260040161185290613234565b60405180910390fd5b808061186690612bcf565b91505061177b565b505b505050565b600073ffffffffffffffffffffffffffffffffffffffff168273ffffffffffffffffffffffffffffffffffffffff16036118e4576040517f08c379a00000000000000000000000000000000000000000000000000000000081526004016118db906132a0565b60405180910390fd5b6118f060008383611fb4565b806002600082825461190291906125b2565b92505081905550806000808473ffffffffffffffffffffffffffffffffffffffff1673ffffffffffffffffffffffffffffffffffffffff168152602001908152602001600020600082825401925050819055508173ffffffffffffffffffffffffffffffffffffffff16600073ffffffffffffffffffffffffffffffffffffffff167fddf252ad1be2c89b69c2b068fc378daa952ba7f163c4a11628f55a4df523b3ef836040516119b39190611fd7565b60405180910390a36119c760008383611fb9565b5050565b6000600c805490509050600080600090505b600a80549050811015611aee576000600b6000600a8481548110611a0457611a03612ba0565b5b9060005260206000200160009054906101000a900473ffffffffffffffffffffffffffffffffffffffff1673ffffffffffffffffffffffffffffffffffffffff1673ffffffffffffffffffffffffffffffffffffffff16815260200190815260200160002090508060010160019054906101000a900460ff168015611a8c5750838160020154105b15611ada5780600201549350600a8281548110611aac57611aab612ba0565b5b9060005260206000200160009054906101000a900473ffffffffffffffffffffffffffffffffffffffff1692505b508080611ae690612bcf565b9150506119dd565b506000600b60008373ffffffffffffffffffffffffffffffffffffffff1673ffffffffffffffffffffffffffffffffffffffff16815260200190815260200160002060010160016101000a81548160ff0219169083151502179055505050565b60606000600a8054905067ffffffffffffffff811115611b7157611b7061272a565b5b604051908082528060200260200182016040528015611b9f5781602001602082028036833780820191505090505b5090506000600a80549050905060005b600a80549050811015611cbc57600b6000600a8381548110611bd457611bd3612ba0565b5b9060005260206000200160009054906101000a900473ffffffffffffffffffffffffffffffffffffffff1673ffffffffffffffffffffffffffffffffffffffff1673ffffffffffffffffffffffffffffffffffffffff16815260200190815260200160002060010160019054906101000a900460ff1615838281518110611c5e57611c5d612ba0565b5b602002602001019015159081151581525050828181518110611c8357611c82612ba0565b5b6020026020010151611c96576001611c99565b60005b60ff1682611ca79190612dcd565b91508080611cb490612bcf565b915050611baf565b506000600c8054905090505b600081118015611cfb5750600754600c80549050118015611cfa5750600754600c80549050611cf79190612dcd565b81115b5b15611dd55782600c600183611d109190612dcd565b81548110611d2157611d20612ba0565b5b90600052602060002090600202016001015481518110611d4457611d43612ba0565b5b6020026020010151611d57576000611d5a565b60015b60ff1682611d689190612dcd565b9150600083600c600184611d7c9190612dcd565b81548110611d8d57611d8c612ba0565b5b90600052602060002090600202016001015481518110611db057611daf612ba0565b5b6020026020010190151590811515815250508080611dcd906132c0565b915050611cc8565b5060008167ffffffffffffffff811115611df257611df161272a565b5b604051908082528060200260200182016040528015611e205781602001602082028036833780820191505090505b5090506000805b600a80549050811015611e9457848181518110611e4757611e46612ba0565b5b602002602001015115611e815780838380611e6190612bcf565b945081518110611e7457611e73612ba0565b5b6020026020010181815250505b8080611e8c90612bcf565b915050611e27565b508194505050505090565b6000806000905060005b600a80549050811015611f6b57600b6000600a8381548110611ece57611ecd612ba0565b5b9060005260206000200160009054906101000a900473ffffffffffffffffffffffffffffffffffffffff1673ffffffffffffffffffffffffffffffffffffffff1673ffffffffffffffffffffffffffffffffffffffff16815260200190815260200160002060010160019054906101000a900460ff1615611f58578180611f5490612bcf565b9250505b8080611f6390612bcf565b915050611ea9565b508091505090565b6000824283604051602001611f8992919061330a565b6040516020818303038152906040528051906020012060001c611fac9190613365565b905092915050565b505050565b505050565b6000819050919050565b611fd181611fbe565b82525050565b6000602082019050611fec6000830184611fc8565b92915050565b600081519050919050565b600082825260208201905092915050565b60005b8381101561202c578082015181840152602081019050612011565b60008484015250505050565b6000601f19601f8301169050919050565b600061205482611ff2565b61205e8185611ffd565b935061206e81856020860161200e565b61207781612038565b840191505092915050565b6000602082019050818103600083015261209c8184612049565b905092915050565b6000604051905090565b600080fd5b600080fd5b600073ffffffffffffffffffffffffffffffffffffffff82169050919050565b60006120e3826120b8565b9050919050565b6120f3816120d8565b81146120fe57600080fd5b50565b600081359050612110816120ea565b92915050565b61211f81611fbe565b811461212a57600080fd5b50565b60008135905061213c81612116565b92915050565b60008060408385031215612159576121586120ae565b5b600061216785828601612101565b92505060206121788582860161212d565b9150509250929050565b60008115159050919050565b61219781612182565b82525050565b60006020820190506121b2600083018461218e565b92915050565b6000806000606084860312156121d1576121d06120ae565b5b60006121df86828701612101565b93505060206121f086828701612101565b92505060406122018682870161212d565b9150509250925092565b600060ff82169050919050565b6122218161220b565b82525050565b600060208201905061223c6000830184612218565b92915050565b600080fd5b600080fd5b600080fd5b60008083601f84011261226757612266612242565b5b8235905067ffffffffffffffff81111561228457612283612247565b5b6020830191508360018202830111156122a05761229f61224c565b5b9250929050565b60008083601f8401126122bd576122bc612242565b5b8235905067ffffffffffffffff8111156122da576122d9612247565b5b6020830191508360208202830111156122f6576122f561224c565b5b9250929050565b60008060008060408587031215612317576123166120ae565b5b600085013567ffffffffffffffff811115612335576123346120b3565b5b61234187828801612251565b9450945050602085013567ffffffffffffffff811115612364576123636120b3565b5b612370878288016122a7565b925092505092959194509250565b600060208284031215612394576123936120ae565b5b60006123a28482850161212d565b91505092915050565b600060408201905081810360008301526123c58185612049565b90506123d46020830184611fc8565b9392505050565b6000602082840312156123f1576123f06120ae565b5b60006123ff84828501612101565b91505092915050565b600060808201905061241d6000830187611fc8565b61242a602083018661218e565b612437604083018561218e565b6124446060830184611fc8565b95945050505050565b60008060408385031215612464576124636120ae565b5b600061247285828601612101565b925050602061248385828601612101565b9150509250929050565b612496816120d8565b82525050565b60006020820190506124b1600083018461248d565b92915050565b7f4e487b7100000000000000000000000000000000000000000000000000000000600052602260045260246000fd5b600060028204905060018216806124fe57607f821691505b602082108103612511576125106124b7565b5b50919050565b7f416c726561647920726567697374657265640000000000000000000000000000600082015250565b600061254d601283611ffd565b915061255882612517565b602082019050919050565b6000602082019050818103600083015261257c81612540565b9050919050565b7f4e487b7100000000000000000000000000000000000000000000000000000000600052601160045260246000fd5b60006125bd82611fbe565b91506125c883611fbe565b92508282019050808211156125e0576125df612583565b5b92915050565b7f4e6f7420656e6f75676820636c69656e74730000000000000000000000000000600082015250565b600061261c601283611ffd565b9150612627826125e6565b602082019050919050565b6000602082019050818103600083015261264b8161260f565b9050919050565b7f4e6f206c6561726e696e67207269676874000000000000000000000000000000600082015250565b6000612688601183611ffd565b915061269382612652565b602082019050919050565b600060208201905081810360008301526126b78161267b565b9050919050565b7f4d6f64656c20616c726561647920657869737473000000000000000000000000600082015250565b60006126f4601483611ffd565b91506126ff826126be565b602082019050919050565b60006020820190508181036000830152612723816126e7565b9050919050565b7f4e487b7100000000000000000000000000000000000000000000000000000000600052604160045260246000fd5b61276282612038565b810181811067ffffffffffffffff821117156127815761278061272a565b5b80604052505050565b60006127946120a4565b90506127a08282612759565b919050565b600067ffffffffffffffff8211156127c0576127bf61272a565b5b602082029050602081019050919050565b600080fd5b600067ffffffffffffffff8211156127f1576127f061272a565b5b6127fa82612038565b9050602081019050919050565b82818337600083830152505050565b6000612829612824846127d6565b61278a565b905082815260208101848484011115612845576128446127d1565b5b612850848285612807565b509392505050565b600082601f83011261286d5761286c612242565b5b813561287d848260208601612816565b91505092915050565b6000612899612894846127a5565b61278a565b905080838252602082019050602084028301858111156128bc576128bb61224c565b5b835b8181101561290357803567ffffffffffffffff8111156128e1576128e0612242565b5b8086016128ee8982612858565b855260208501945050506020810190506128be565b5050509392505050565b600061291a368484612886565b905092915050565b60008190508160005260206000209050919050565b60006020601f8301049050919050565b600082821b905092915050565b6000600883026129847fffffffffffffffffffffffffffffffffffffffffffffffffffffffffffffffff82612947565b61298e8683612947565b95508019841693508086168417925050509392505050565b6000819050919050565b60006129cb6129c66129c184611fbe565b6129a6565b611fbe565b9050919050565b6000819050919050565b6129e5836129b0565b6129f96129f1826129d2565b848454612954565b825550505050565b600090565b612a0e612a01565b612a198184846129dc565b505050565b5b81811015612a3d57612a32600082612a06565b600181019050612a1f565b5050565b601f821115612a8257612a5381612922565b612a5c84612937565b81016020851015612a6b578190505b612a7f612a7785612937565b830182612a1e565b50505b505050565b600082821c905092915050565b6000612aa560001984600802612a87565b1980831691505092915050565b6000612abe8383612a94565b9150826002028217905092915050565b612ad782611ff2565b67ffffffffffffffff811115612af057612aef61272a565b5b612afa82546124e6565b612b05828285612a41565b600060209050601f831160018114612b385760008415612b26578287015190505b612b308582612ab2565b865550612b98565b601f198416612b4686612922565b60005b82811015612b6e57848901518255600182019150602085019450602081019050612b49565b86831015612b8b5784890151612b87601f891682612a94565b8355505b6001600288020188555050505b505050505050565b7f4e487b7100000000000000000000000000000000000000000000000000000000600052603260045260246000fd5b6000612bda82611fbe565b91507fffffffffffffffffffffffffffffffffffffffffffffffffffffffffffffffff8203612c0c57612c0b612583565b5b600182019050919050565b7f45524332303a2064656372656173656420616c6c6f77616e63652062656c6f7760008201527f207a65726f000000000000000000000000000000000000000000000000000000602082015250565b6000612c73602583611ffd565b9150612c7e82612c17565b604082019050919050565b60006020820190508181036000830152612ca281612c66565b9050919050565b7f45524332303a20617070726f76652066726f6d20746865207a65726f2061646460008201527f7265737300000000000000000000000000000000000000000000000000000000602082015250565b6000612d05602483611ffd565b9150612d1082612ca9565b604082019050919050565b60006020820190508181036000830152612d3481612cf8565b9050919050565b7f45524332303a20617070726f766520746f20746865207a65726f20616464726560008201527f7373000000000000000000000000000000000000000000000000000000000000602082015250565b6000612d97602283611ffd565b9150612da282612d3b565b604082019050919050565b60006020820190508181036000830152612dc681612d8a565b9050919050565b6000612dd882611fbe565b9150612de383611fbe565b9250828203905081811115612dfb57612dfa612583565b5b92915050565b7f4e6f7420656e6f75676820656c696769626c6520636c69656e74730000000000600082015250565b6000612e37601b83611ffd565b9150612e4282612e01565b602082019050919050565b60006020820190508181036000830152612e6681612e2a565b9050919050565b7f45524332303a20696e73756666696369656e7420616c6c6f77616e6365000000600082015250565b6000612ea3601d83611ffd565b9150612eae82612e6d565b602082019050919050565b60006020820190508181036000830152612ed281612e96565b9050919050565b7f45524332303a207472616e736665722066726f6d20746865207a65726f20616460008201527f6472657373000000000000000000000000000000000000000000000000000000602082015250565b6000612f35602583611ffd565b9150612f4082612ed9565b604082019050919050565b60006020820190508181036000830152612f6481612f28565b9050919050565b7f45524332303a207472616e7366657220746f20746865207a65726f206164647260008201527f6573730000000000000000000000000000000000000000000000000000000000602082015250565b6000612fc7602383611ffd565b9150612fd282612f6b565b604082019050919050565b60006020820190508181036000830152612ff681612fba565b9050919050565b7f45524332303a207472616e7366657220616d6f756e742065786365656473206260008201527f616c616e63650000000000000000000000000000000000000000000000000000602082015250565b6000613059602683611ffd565b915061306482612ffd565b604082019050919050565b600060208201905081810360008301526130888161304c565b9050919050565b600081905092915050565b60006130a582611ff2565b6130af818561308f565b93506130bf81856020860161200e565b80840191505092915050565b60006130d7828461309a565b915081905092915050565b600081546130ef816124e6565b6130f9818661308f565b9450600182166000811461311457600181146131295761315c565b60ff198316865281151582028601935061315c565b61313285612922565b60005b8381101561315457815481890152600182019150602081019050613135565b838801955050505b50505092915050565b600061317182846130e2565b915081905092915050565b7f496e76616c6964206e756d626572206f6620766f746500000000000000000000600082015250565b60006131b2601683611ffd565b91506131bd8261317c565b602082019050919050565b600060208201905081810360008301526131e1816131a5565b9050919050565b7f496e76616c6964206d6f64656c20696e64657800000000000000000000000000600082015250565b600061321e601383611ffd565b9150613229826131e8565b602082019050919050565b6000602082019050818103600083015261324d81613211565b9050919050565b7f45524332303a206d696e7420746f20746865207a65726f206164647265737300600082015250565b600061328a601f83611ffd565b915061329582613254565b602082019050919050565b600060208201905081810360008301526132b98161327d565b9050919050565b60006132cb82611fbe565b9150600082036132de576132dd612583565b5b600182039050919050565b6000819050919050565b6133046132ff82611fbe565b6132e9565b82525050565b600061331682856132f3565b60208201915061332682846132f3565b6020820191508190509392505050565b7f4e487b7100000000000000000000000000000000000000000000000000000000600052601260045260246000fd5b600061337082611fbe565b915061337b83611fbe565b92508261338b5761338a613336565b5b82820690509291505056fea264697066735822122070345910177775c8e91440d3a237f7254962384f2604e412ff36f0e1864855ba64736f6c63430008120033",
  "linkReferences": {},
  "deployedLinkReferences": {}
}