{
  "_format": "hh-sol-artifact-1",
  "contractName": "FederatedLearning",
  "sourceName": "contracts/FederatedLearning.sol",
  "abi": [
    {
      "inputs": [
        {
          "internalType": "string",
          "name": "_initialModelCID",
          "type": "string"
        }
      ],
      "stateMutability": "nonpayable",
      "type": "constructor"
    },
    {
      "anonymous": false,
      "inputs": [
        {
          "indexed": true,
          "internalType": "address",
          "name": "owner",
          "type": "address"
        },
        {
          "indexed": true,
          "internalType": "address",
          "name": "spender",
          "type": "address"
        },
        {
          "indexed": false,
          "internalType": "uint256",
          "name": "value",
          "type": "uint256"
        }
      ],
      "name": "Approval",
      "type": "event"
    },
    {
      "anonymous": false,
      "inputs": [
        {
          "indexed": true,
          "internalType": "address",
          "name": "client",
          "type": "address"
        },
        {
          "indexed": false,
          "internalType": "uint256",
          "name": "modelIndex",
          "type": "uint256"
        }
      ],
      "name": "LearningRightGranted",
      "type": "event"
    },
    {
      "anonymous": false,
      "inputs": [
        {
          "indexed": true,
          "internalType": "address",
          "name": "from",
          "type": "address"
        },
        {
          "indexed": true,
          "internalType": "address",
          "name": "to",
          "type": "address"
        },
        {
          "indexed": false,
          "internalType": "uint256",
          "name": "value",
          "type": "uint256"
        }
      ],
      "name": "Transfer",
      "type": "event"
    },
    {
      "inputs": [],
      "name": "ClientNumThres",
      "outputs": [
        {
          "internalType": "uint256",
          "name": "",
          "type": "uint256"
        }
      ],
      "stateMutability": "view",
      "type": "function"
    },
    {
      "inputs": [],
      "name": "ClientWithLearnigLightNum",
      "outputs": [
        {
          "internalType": "uint256",
          "name": "",
          "type": "uint256"
        }
      ],
      "stateMutability": "view",
      "type": "function"
    },
    {
      "inputs": [],
      "name": "VotableModelNum",
      "outputs": [
        {
          "internalType": "uint256",
          "name": "",
          "type": "uint256"
        }
      ],
      "stateMutability": "view",
      "type": "function"
    },
    {
      "inputs": [],
      "name": "VoteNum",
      "outputs": [
        {
          "internalType": "uint256",
          "name": "",
          "type": "uint256"
        }
      ],
      "stateMutability": "view",
      "type": "function"
    },
    {
      "inputs": [
        {
          "internalType": "address",
          "name": "owner",
          "type": "address"
        },
        {
          "internalType": "address",
          "name": "spender",
          "type": "address"
        }
      ],
      "name": "allowance",
      "outputs": [
        {
          "internalType": "uint256",
          "name": "",
          "type": "uint256"
        }
      ],
      "stateMutability": "view",
      "type": "function"
    },
    {
      "inputs": [
        {
          "internalType": "address",
          "name": "spender",
          "type": "address"
        },
        {
          "internalType": "uint256",
          "name": "amount",
          "type": "uint256"
        }
      ],
      "name": "approve",
      "outputs": [
        {
          "internalType": "bool",
          "name": "",
          "type": "bool"
        }
      ],
      "stateMutability": "nonpayable",
      "type": "function"
    },
    {
      "inputs": [
        {
          "internalType": "address",
          "name": "account",
          "type": "address"
        }
      ],
      "name": "balanceOf",
      "outputs": [
        {
          "internalType": "uint256",
          "name": "",
          "type": "uint256"
        }
      ],
      "stateMutability": "view",
      "type": "function"
    },
    {
      "inputs": [
        {
          "internalType": "address",
          "name": "",
          "type": "address"
        }
      ],
      "name": "clientInfo",
      "outputs": [
        {
          "internalType": "bool",
          "name": "registered",
          "type": "bool"
        },
        {
          "internalType": "bool",
          "name": "hasLearningRight",
          "type": "bool"
        },
        {
          "internalType": "uint256",
          "name": "latestModelIndex",
          "type": "uint256"
        }
      ],
      "stateMutability": "view",
      "type": "function"
    },
    {
      "inputs": [
        {
          "internalType": "uint256",
          "name": "",
          "type": "uint256"
        }
      ],
      "name": "clients",
      "outputs": [
        {
          "internalType": "address",
          "name": "",
          "type": "address"
        }
      ],
      "stateMutability": "view",
      "type": "function"
    },
    {
      "inputs": [],
      "name": "decimals",
      "outputs": [
        {
          "internalType": "uint8",
          "name": "",
          "type": "uint8"
        }
      ],
      "stateMutability": "view",
      "type": "function"
    },
    {
      "inputs": [
        {
          "internalType": "address",
          "name": "spender",
          "type": "address"
        },
        {
          "internalType": "uint256",
          "name": "subtractedValue",
          "type": "uint256"
        }
      ],
      "name": "decreaseAllowance",
      "outputs": [
        {
          "internalType": "bool",
          "name": "",
          "type": "bool"
        }
      ],
      "stateMutability": "nonpayable",
      "type": "function"
    },
    {
      "inputs": [
        {
          "internalType": "address",
          "name": "spender",
          "type": "address"
        },
        {
          "internalType": "uint256",
          "name": "addedValue",
          "type": "uint256"
        }
      ],
      "name": "increaseAllowance",
      "outputs": [
        {
          "internalType": "bool",
          "name": "",
          "type": "bool"
        }
      ],
      "stateMutability": "nonpayable",
      "type": "function"
    },
    {
      "inputs": [],
      "name": "initialModelCID",
      "outputs": [
        {
          "internalType": "string",
          "name": "",
          "type": "string"
        }
      ],
      "stateMutability": "view",
      "type": "function"
    },
    {
      "inputs": [
        {
          "internalType": "uint256",
          "name": "",
          "type": "uint256"
        }
      ],
      "name": "models",
      "outputs": [
        {
          "internalType": "string",
          "name": "CID",
          "type": "string"
        },
        {
          "internalType": "address",
          "name": "author",
          "type": "address"
        }
      ],
      "stateMutability": "view",
      "type": "function"
    },
    {
      "inputs": [],
      "name": "name",
      "outputs": [
        {
          "internalType": "string",
          "name": "",
          "type": "string"
        }
      ],
      "stateMutability": "view",
      "type": "function"
    },
    {
      "inputs": [],
      "name": "register",
      "outputs": [],
      "stateMutability": "nonpayable",
      "type": "function"
    },
    {
      "inputs": [
        {
          "internalType": "string",
          "name": "_newModelCID",
          "type": "string"
        },
        {
          "internalType": "string[]",
          "name": "_votedModelCIDs",
          "type": "string[]"
        }
      ],
      "name": "submitModel",
      "outputs": [],
      "stateMutability": "nonpayable",
      "type": "function"
    },
    {
      "inputs": [],
      "name": "symbol",
      "outputs": [
        {
          "internalType": "string",
          "name": "",
          "type": "string"
        }
      ],
      "stateMutability": "view",
      "type": "function"
    },
    {
      "inputs": [],
      "name": "totalSupply",
      "outputs": [
        {
          "internalType": "uint256",
          "name": "",
          "type": "uint256"
        }
      ],
      "stateMutability": "view",
      "type": "function"
    },
    {
      "inputs": [
        {
          "internalType": "address",
          "name": "to",
          "type": "address"
        },
        {
          "internalType": "uint256",
          "name": "amount",
          "type": "uint256"
        }
      ],
      "name": "transfer",
      "outputs": [
        {
          "internalType": "bool",
          "name": "",
          "type": "bool"
        }
      ],
      "stateMutability": "nonpayable",
      "type": "function"
    },
    {
      "inputs": [
        {
          "internalType": "address",
          "name": "from",
          "type": "address"
        },
        {
          "internalType": "address",
          "name": "to",
          "type": "address"
        },
        {
          "internalType": "uint256",
          "name": "amount",
          "type": "uint256"
        }
      ],
      "name": "transferFrom",
      "outputs": [
        {
          "internalType": "bool",
          "name": "",
          "type": "bool"
        }
      ],
      "stateMutability": "nonpayable",
      "type": "function"
    }
  ],
  "bytecode": "0x60806040523480156200001157600080fd5b50604051620038f4380380620038f4833981810160405281019062000037919062000275565b6040518060400160405280601881526020017f466564657261746564204c6561726e696e6720546f6b656e00000000000000008152506040518060400160405280600381526020017f464c5400000000000000000000000000000000000000000000000000000000008152508160039081620000b4919062000511565b508060049081620000c6919062000511565b5050508060059081620000da919062000511565b5050620005f8565b6000604051905090565b600080fd5b600080fd5b600080fd5b600080fd5b6000601f19601f8301169050919050565b7f4e487b7100000000000000000000000000000000000000000000000000000000600052604160045260246000fd5b6200014b8262000100565b810181811067ffffffffffffffff821117156200016d576200016c62000111565b5b80604052505050565b600062000182620000e2565b905062000190828262000140565b919050565b600067ffffffffffffffff821115620001b357620001b262000111565b5b620001be8262000100565b9050602081019050919050565b60005b83811015620001eb578082015181840152602081019050620001ce565b60008484015250505050565b60006200020e620002088462000195565b62000176565b9050828152602081018484840111156200022d576200022c620000fb565b5b6200023a848285620001cb565b509392505050565b600082601f8301126200025a5762000259620000f6565b5b81516200026c848260208601620001f7565b91505092915050565b6000602082840312156200028e576200028d620000ec565b5b600082015167ffffffffffffffff811115620002af57620002ae620000f1565b5b620002bd8482850162000242565b91505092915050565b600081519050919050565b7f4e487b7100000000000000000000000000000000000000000000000000000000600052602260045260246000fd5b600060028204905060018216806200031957607f821691505b6020821081036200032f576200032e620002d1565b5b50919050565b60008190508160005260206000209050919050565b60006020601f8301049050919050565b600082821b905092915050565b600060088302620003997fffffffffffffffffffffffffffffffffffffffffffffffffffffffffffffffff826200035a565b620003a586836200035a565b95508019841693508086168417925050509392505050565b6000819050919050565b6000819050919050565b6000620003f2620003ec620003e684620003bd565b620003c7565b620003bd565b9050919050565b6000819050919050565b6200040e83620003d1565b620004266200041d82620003f9565b84845462000367565b825550505050565b600090565b6200043d6200042e565b6200044a81848462000403565b505050565b5b8181101562000472576200046660008262000433565b60018101905062000450565b5050565b601f821115620004c1576200048b8162000335565b62000496846200034a565b81016020851015620004a6578190505b620004be620004b5856200034a565b8301826200044f565b50505b505050565b600082821c905092915050565b6000620004e660001984600802620004c6565b1980831691505092915050565b6000620005018383620004d3565b9150826002028217905092915050565b6200051c82620002c6565b67ffffffffffffffff81111562000538576200053762000111565b5b62000544825462000300565b6200055182828562000476565b600060209050601f83116001811462000589576000841562000574578287015190505b620005808582620004f3565b865550620005f0565b601f198416620005998662000335565b60005b82811015620005c3578489015182556001820191506020850194506020810190506200059c565b86831015620005e35784890151620005df601f891682620004d3565b8355505b6001600288020188555050505b505050505050565b6132ec80620006086000396000f3fe608060405234801561001057600080fd5b50600436106101365760003560e01c806342279a79116100b8578063758dde961161007c578063758dde961461034257806395d89b4114610374578063a457c2d714610392578063a9059cbb146103c2578063dd62ed3e146103f2578063f88af21d1461042257610136565b806342279a791461028957806346e1531f146102a75780636a030ca9146102c357806370a08231146102f4578063729ca9451461032457610136565b80631aa3a008116100ff5780631aa3a008146101e357806323b872dd146101ed578063313ce5671461021d578063395093511461023b5780633e6cebca1461026b57610136565b806223fca31461013b57806303c462cf1461015957806306fdde0314610177578063095ea7b31461019557806318160ddd146101c5575b600080fd5b610143610452565b6040516101509190611f71565b60405180910390f35b610161610457565b60405161016e9190611f71565b60405180910390f35b61017f61045c565b60405161018c919061201c565b60405180910390f35b6101af60048036038101906101aa91906120dc565b6104ee565b6040516101bc9190612137565b60405180910390f35b6101cd610511565b6040516101da9190611f71565b60405180910390f35b6101eb61051b565b005b61020760048036038101906102029190612152565b610681565b6040516102149190612137565b60405180910390f35b6102256106b0565b60405161023291906121c1565b60405180910390f35b610255600480360381019061025091906120dc565b6106b9565b6040516102629190612137565b60405180910390f35b6102736106f0565b6040516102809190611f71565b60405180910390f35b6102916106f5565b60405161029e919061201c565b60405180910390f35b6102c160048036038101906102bc9190612297565b610783565b005b6102dd60048036038101906102d89190612318565b610ad2565b6040516102eb929190612354565b60405180910390f35b61030e60048036038101906103099190612384565b610bae565b60405161031b9190611f71565b60405180910390f35b61032c610bf6565b6040516103399190611f71565b60405180910390f35b61035c60048036038101906103579190612384565b610bfb565b60405161036b939291906123b1565b60405180910390f35b61037c610c3f565b604051610389919061201c565b60405180910390f35b6103ac60048036038101906103a791906120dc565b610cd1565b6040516103b99190612137565b60405180910390f35b6103dc60048036038101906103d791906120dc565b610d48565b6040516103e99190612137565b60405180910390f35b61040c600480360381019061040791906123e8565b610d6b565b6040516104199190611f71565b60405180910390f35b61043c60048036038101906104379190612318565b610df2565b6040516104499190612428565b60405180910390f35b600a81565b600381565b60606003805461046b90612472565b80601f016020809104026020016040519081016040528092919081815260200182805461049790612472565b80156104e45780601f106104b9576101008083540402835291602001916104e4565b820191906000526020600020905b8154815290600101906020018083116104c757829003601f168201915b5050505050905090565b6000806104f9610e31565b9050610506818585610e39565b600191505092915050565b6000600254905090565b600760003373ffffffffffffffffffffffffffffffffffffffff1673ffffffffffffffffffffffffffffffffffffffff16815260200190815260200160002060000160009054906101000a900460ff16156105ab576040517f08c379a00000000000000000000000000000000000000000000000000000000081526004016105a2906124ef565b60405180910390fd5b6001600760003373ffffffffffffffffffffffffffffffffffffffff1673ffffffffffffffffffffffffffffffffffffffff16815260200190815260200160002060000160006101000a81548160ff0219169083151502179055506006339080600181540180825580915050600190039060005260206000200160009091909190916101000a81548173ffffffffffffffffffffffffffffffffffffffff021916908373ffffffffffffffffffffffffffffffffffffffff160217905550600a6006805490500361067f5761067e611002565b5b565b60008061068c610e31565b9050610699858285611152565b6106a48585856111de565b60019150509392505050565b60006012905090565b6000806106c4610e31565b90506106e58185856106d68589610d6b565b6106e0919061253e565b610e39565b600191505092915050565b600181565b6005805461070290612472565b80601f016020809104026020016040519081016040528092919081815260200182805461072e90612472565b801561077b5780601f106107505761010080835404028352916020019161077b565b820191906000526020600020905b81548152906001019060200180831161075e57829003601f168201915b505050505081565b600a60068054905010156107cc576040517f08c379a00000000000000000000000000000000000000000000000000000000081526004016107c3906125be565b60405180910390fd5b6000600760003373ffffffffffffffffffffffffffffffffffffffff1673ffffffffffffffffffffffffffffffffffffffff16815260200190815260200160002090508060000160019054906101000a900460ff16610860576040517f08c379a00000000000000000000000000000000000000000000000000000000081526004016108579061262a565b60405180910390fd5b6108ad85858080601f016020809104026020016040519081016040528093929190818152602001838380828437600081840152601f19601f82011690508083019250505050505050611454565b156108ed576040517f08c379a00000000000000000000000000000000000000000000000000000000081526004016108e490612696565b60405180910390fd5b60006109048484906108ff9190612899565b611508565b905061091482600101548261165b565b6008604051806040016040528088888080601f016020809104026020016040519081016040528093929190818152602001838380828437600081840152601f19601f8201169050808301925050505050505081526020013373ffffffffffffffffffffffffffffffffffffffff16815250908060018154018082558091505060019003906000526020600020906002020160009091909190915060008201518160000190816109c39190612a5a565b5060208201518160010160006101000a81548173ffffffffffffffffffffffffffffffffffffffff021916908373ffffffffffffffffffffffffffffffffffffffff160217905550505060008260000160016101000a81548160ff02191690831515021790555060005b8151811015610ab95760006008838381518110610a4d57610a4c612b2c565b5b602002602001015181548110610a6657610a65612b2c565b5b90600052602060002090600202019050610aa58160010160009054906101000a900473ffffffffffffffffffffffffffffffffffffffff1660016117b7565b508080610ab190612b5b565b915050610a2d565b50610ac261190d565b610aca611002565b505050505050565b60088181548110610ae257600080fd5b9060005260206000209060020201600091509050806000018054610b0590612472565b80601f0160208091040260200160405190810160405280929190818152602001828054610b3190612472565b8015610b7e5780601f10610b5357610100808354040283529160200191610b7e565b820191906000526020600020905b815481529060010190602001808311610b6157829003601f168201915b5050505050908060010160009054906101000a900473ffffffffffffffffffffffffffffffffffffffff16905082565b60008060008373ffffffffffffffffffffffffffffffffffffffff1673ffffffffffffffffffffffffffffffffffffffff168152602001908152602001600020549050919050565b600381565b60076020528060005260406000206000915090508060000160009054906101000a900460ff16908060000160019054906101000a900460ff16908060010154905083565b606060048054610c4e90612472565b80601f0160208091040260200160405190810160405280929190818152602001828054610c7a90612472565b8015610cc75780601f10610c9c57610100808354040283529160200191610cc7565b820191906000526020600020905b815481529060010190602001808311610caa57829003601f168201915b5050505050905090565b600080610cdc610e31565b90506000610cea8286610d6b565b905083811015610d2f576040517f08c379a0000000000000000000000000000000000000000000000000000000008152600401610d2690612c15565b60405180910390fd5b610d3c8286868403610e39565b60019250505092915050565b600080610d53610e31565b9050610d608185856111de565b600191505092915050565b6000600160008473ffffffffffffffffffffffffffffffffffffffff1673ffffffffffffffffffffffffffffffffffffffff16815260200190815260200160002060008373ffffffffffffffffffffffffffffffffffffffff1673ffffffffffffffffffffffffffffffffffffffff16815260200190815260200160002054905092915050565b60068181548110610e0257600080fd5b906000526020600020016000915054906101000a900473ffffffffffffffffffffffffffffffffffffffff1681565b600033905090565b600073ffffffffffffffffffffffffffffffffffffffff168373ffffffffffffffffffffffffffffffffffffffff1603610ea8576040517f08c379a0000000000000000000000000000000000000000000000000000000008152600401610e9f90612ca7565b60405180910390fd5b600073ffffffffffffffffffffffffffffffffffffffff168273ffffffffffffffffffffffffffffffffffffffff1603610f17576040517f08c379a0000000000000000000000000000000000000000000000000000000008152600401610f0e90612d39565b60405180910390fd5b80600160008573ffffffffffffffffffffffffffffffffffffffff1673ffffffffffffffffffffffffffffffffffffffff16815260200190815260200160002060008473ffffffffffffffffffffffffffffffffffffffff1673ffffffffffffffffffffffffffffffffffffffff168152602001908152602001600020819055508173ffffffffffffffffffffffffffffffffffffffff168373ffffffffffffffffffffffffffffffffffffffff167f8c5be1e5ebec7d5bd14f71427d1e84f3dd0314c0f7b2291e5b200ac8c7c3b92583604051610ff59190611f71565b60405180910390a3505050565b600061100c611a90565b905060008151905060008061101f611ccb565b90505b600381101561114c5760008461104485858061103d90612b5b565b9650611d9f565b8151811061105557611054612b2c565b5b602002602001015190506000600760008373ffffffffffffffffffffffffffffffffffffffff1673ffffffffffffffffffffffffffffffffffffffff16815260200190815260200160002090508060000160019054906101000a900460ff166111455760018160000160016101000a81548160ff02191690831515021790555060088054905081600101819055508173ffffffffffffffffffffffffffffffffffffffff167fb54203a49d362ca51966a45a58cd0a64cf0107259da54042db7d15e57177616e60088054905060405161112e9190611f71565b60405180910390a2828061114190612b5b565b9350505b5050611022565b50505050565b600061115e8484610d6b565b90507fffffffffffffffffffffffffffffffffffffffffffffffffffffffffffffffff81146111d857818110156111ca576040517f08c379a00000000000000000000000000000000000000000000000000000000081526004016111c190612da5565b60405180910390fd5b6111d78484848403610e39565b5b50505050565b600073ffffffffffffffffffffffffffffffffffffffff168373ffffffffffffffffffffffffffffffffffffffff160361124d576040517f08c379a000000000000000000000000000000000000000000000000000000000815260040161124490612e37565b60405180910390fd5b600073ffffffffffffffffffffffffffffffffffffffff168273ffffffffffffffffffffffffffffffffffffffff16036112bc576040517f08c379a00000000000000000000000000000000000000000000000000000000081526004016112b390612ec9565b60405180910390fd5b6112c7838383611de0565b60008060008573ffffffffffffffffffffffffffffffffffffffff1673ffffffffffffffffffffffffffffffffffffffff1681526020019081526020016000205490508181101561134d576040517f08c379a000000000000000000000000000000000000000000000000000000000815260040161134490612f5b565b60405180910390fd5b8181036000808673ffffffffffffffffffffffffffffffffffffffff1673ffffffffffffffffffffffffffffffffffffffff16815260200190815260200160002081905550816000808573ffffffffffffffffffffffffffffffffffffffff1673ffffffffffffffffffffffffffffffffffffffff168152602001908152602001600020600082825401925050819055508273ffffffffffffffffffffffffffffffffffffffff168473ffffffffffffffffffffffffffffffffffffffff167fddf252ad1be2c89b69c2b068fc378daa952ba7f163c4a11628f55a4df523b3ef8460405161143b9190611f71565b60405180910390a361144e848484611de5565b50505050565b600080600090505b6008805490508110156114fd578260405160200161147a9190612fb7565b60405160208183030381529060405280519060200120600882815481106114a4576114a3612b2c565b5b90600052602060002090600202016000016040516020016114c59190613051565b60405160208183030381529060405280519060200120036114ea576001915050611503565b80806114f590612b5b565b91505061145c565b50600090505b919050565b60606000825167ffffffffffffffff811115611527576115266126b6565b5b6040519080825280602002602001820160405280156115555781602001602082028036833780820191505090505b50905060005b83518110156116515760005b60088054905081101561163d5784828151811061158757611586612b2c565b5b602002602001015160405160200161159f9190612fb7565b60405160208183030381529060405280519060200120600882815481106115c9576115c8612b2c565b5b90600052602060002090600202016000016040516020016115ea9190613051565b604051602081830303815290604052805190602001200361162a578083838151811061161957611618612b2c565b5b60200260200101818152505061163d565b808061163590612b5b565b915050611567565b50808061164990612b5b565b91505061155b565b5080915050919050565b60006001831061166c57600161166e565b825b9050815181146116b3576040517f08c379a00000000000000000000000000000000000000000000000000000000081526004016116aa906130b4565b60405180910390fd5b60008251146117b25760005b82518110156117b057838382815181106116dc576116db612b2c565b5b602002602001015110611724576040517f08c379a000000000000000000000000000000000000000000000000000000000815260040161171b90613120565b60405180910390fd5b60038411611733576000611741565b6003846117409190613140565b5b83828151811061175457611753612b2c565b5b6020026020010151101561179d576040517f08c379a000000000000000000000000000000000000000000000000000000000815260040161179490613120565b60405180910390fd5b80806117a890612b5b565b9150506116bf565b505b505050565b600073ffffffffffffffffffffffffffffffffffffffff168273ffffffffffffffffffffffffffffffffffffffff1603611826576040517f08c379a000000000000000000000000000000000000000000000000000000000815260040161181d906131c0565b60405180910390fd5b61183260008383611de0565b8060026000828254611844919061253e565b92505081905550806000808473ffffffffffffffffffffffffffffffffffffffff1673ffffffffffffffffffffffffffffffffffffffff168152602001908152602001600020600082825401925050819055508173ffffffffffffffffffffffffffffffffffffffff16600073ffffffffffffffffffffffffffffffffffffffff167fddf252ad1be2c89b69c2b068fc378daa952ba7f163c4a11628f55a4df523b3ef836040516118f59190611f71565b60405180910390a361190960008383611de5565b5050565b60006008805490509050600080600090505b600680549050811015611a30576000600760006006848154811061194657611945612b2c565b5b9060005260206000200160009054906101000a900473ffffffffffffffffffffffffffffffffffffffff1673ffffffffffffffffffffffffffffffffffffffff1673ffffffffffffffffffffffffffffffffffffffff16815260200190815260200160002090508060000160019054906101000a900460ff1680156119ce5750838160010154105b15611a1c5780600101549350600682815481106119ee576119ed612b2c565b5b9060005260206000200160009054906101000a900473ffffffffffffffffffffffffffffffffffffffff1692505b508080611a2890612b5b565b91505061191f565b506000600760008373ffffffffffffffffffffffffffffffffffffffff1673ffffffffffffffffffffffffffffffffffffffff16815260200190815260200160002060000160016101000a81548160ff0219169083151502179055505050565b6060600060068054905067ffffffffffffffff811115611ab357611ab26126b6565b5b604051908082528060200260200182016040528015611ae15781602001602082028036833780820191505090505b5090506000805b600680549050811015611bed57611b3c60068281548110611b0c57611b0b612b2c565b5b9060005260206000200160009054906101000a900473ffffffffffffffffffffffffffffffffffffffff16611dea565b15611bda5760068181548110611b5557611b54612b2c565b5b9060005260206000200160009054906101000a900473ffffffffffffffffffffffffffffffffffffffff16838380611b8c90612b5b565b945081518110611b9f57611b9e612b2c565b5b602002602001019073ffffffffffffffffffffffffffffffffffffffff16908173ffffffffffffffffffffffffffffffffffffffff16815250505b8080611be590612b5b565b915050611ae8565b5060008167ffffffffffffffff811115611c0a57611c096126b6565b5b604051908082528060200260200182016040528015611c385781602001602082028036833780820191505090505b50905060005b82811015611cc157838181518110611c5957611c58612b2c565b5b6020026020010151828281518110611c7457611c73612b2c565b5b602002602001019073ffffffffffffffffffffffffffffffffffffffff16908173ffffffffffffffffffffffffffffffffffffffff16815250508080611cb990612b5b565b915050611c3e565b5080935050505090565b6000806000905060005b600680549050811015611d97576007600060068381548110611cfa57611cf9612b2c565b5b9060005260206000200160009054906101000a900473ffffffffffffffffffffffffffffffffffffffff1673ffffffffffffffffffffffffffffffffffffffff1673ffffffffffffffffffffffffffffffffffffffff16815260200190815260200160002060000160019054906101000a900460ff1615611d84578180611d8090612b5b565b9250505b8080611d8f90612b5b565b915050611cd5565b508091505090565b6000824283604051602001611db5929190613201565b6040516020818303038152906040528051906020012060001c611dd8919061325c565b905092915050565b505050565b505050565b600080600760008473ffffffffffffffffffffffffffffffffffffffff1673ffffffffffffffffffffffffffffffffffffffff16815260200190815260200160002090508060000160019054906101000a900460ff1680611e5a57508060000160009054906101000a900460ff16155b15611e69576000915050611f53565b600060088054905090505b600081118015611ea557506003600880549050118015611ea457506003600880549050611ea19190613140565b81115b5b15611f4c578373ffffffffffffffffffffffffffffffffffffffff166008600183611ed09190613140565b81548110611ee157611ee0612b2c565b5b906000526020600020906002020160010160009054906101000a900473ffffffffffffffffffffffffffffffffffffffff1673ffffffffffffffffffffffffffffffffffffffff1603611f3957600092505050611f53565b8080611f449061328d565b915050611e74565b5060019150505b919050565b6000819050919050565b611f6b81611f58565b82525050565b6000602082019050611f866000830184611f62565b92915050565b600081519050919050565b600082825260208201905092915050565b60005b83811015611fc6578082015181840152602081019050611fab565b60008484015250505050565b6000601f19601f8301169050919050565b6000611fee82611f8c565b611ff88185611f97565b9350612008818560208601611fa8565b61201181611fd2565b840191505092915050565b600060208201905081810360008301526120368184611fe3565b905092915050565b6000604051905090565b600080fd5b600080fd5b600073ffffffffffffffffffffffffffffffffffffffff82169050919050565b600061207d82612052565b9050919050565b61208d81612072565b811461209857600080fd5b50565b6000813590506120aa81612084565b92915050565b6120b981611f58565b81146120c457600080fd5b50565b6000813590506120d6816120b0565b92915050565b600080604083850312156120f3576120f2612048565b5b60006121018582860161209b565b9250506020612112858286016120c7565b9150509250929050565b60008115159050919050565b6121318161211c565b82525050565b600060208201905061214c6000830184612128565b92915050565b60008060006060848603121561216b5761216a612048565b5b60006121798682870161209b565b935050602061218a8682870161209b565b925050604061219b868287016120c7565b9150509250925092565b600060ff82169050919050565b6121bb816121a5565b82525050565b60006020820190506121d660008301846121b2565b92915050565b600080fd5b600080fd5b600080fd5b60008083601f840112612201576122006121dc565b5b8235905067ffffffffffffffff81111561221e5761221d6121e1565b5b60208301915083600182028301111561223a576122396121e6565b5b9250929050565b60008083601f840112612257576122566121dc565b5b8235905067ffffffffffffffff811115612274576122736121e1565b5b6020830191508360208202830111156122905761228f6121e6565b5b9250929050565b600080600080604085870312156122b1576122b0612048565b5b600085013567ffffffffffffffff8111156122cf576122ce61204d565b5b6122db878288016121eb565b9450945050602085013567ffffffffffffffff8111156122fe576122fd61204d565b5b61230a87828801612241565b925092505092959194509250565b60006020828403121561232e5761232d612048565b5b600061233c848285016120c7565b91505092915050565b61234e81612072565b82525050565b6000604082019050818103600083015261236e8185611fe3565b905061237d6020830184612345565b9392505050565b60006020828403121561239a57612399612048565b5b60006123a88482850161209b565b91505092915050565b60006060820190506123c66000830186612128565b6123d36020830185612128565b6123e06040830184611f62565b949350505050565b600080604083850312156123ff576123fe612048565b5b600061240d8582860161209b565b925050602061241e8582860161209b565b9150509250929050565b600060208201905061243d6000830184612345565b92915050565b7f4e487b7100000000000000000000000000000000000000000000000000000000600052602260045260246000fd5b6000600282049050600182168061248a57607f821691505b60208210810361249d5761249c612443565b5b50919050565b7f416c726561647920726567697374657265640000000000000000000000000000600082015250565b60006124d9601283611f97565b91506124e4826124a3565b602082019050919050565b60006020820190508181036000830152612508816124cc565b9050919050565b7f4e487b7100000000000000000000000000000000000000000000000000000000600052601160045260246000fd5b600061254982611f58565b915061255483611f58565b925082820190508082111561256c5761256b61250f565b5b92915050565b7f4e6f7420656e6f75676820636c69656e74730000000000000000000000000000600082015250565b60006125a8601283611f97565b91506125b382612572565b602082019050919050565b600060208201905081810360008301526125d78161259b565b9050919050565b7f4e6f206c6561726e696e67207269676874000000000000000000000000000000600082015250565b6000612614601183611f97565b915061261f826125de565b602082019050919050565b6000602082019050818103600083015261264381612607565b9050919050565b7f4d6f64656c20616c726561647920657869737473000000000000000000000000600082015250565b6000612680601483611f97565b915061268b8261264a565b602082019050919050565b600060208201905081810360008301526126af81612673565b9050919050565b7f4e487b7100000000000000000000000000000000000000000000000000000000600052604160045260246000fd5b6126ee82611fd2565b810181811067ffffffffffffffff8211171561270d5761270c6126b6565b5b80604052505050565b600061272061203e565b905061272c82826126e5565b919050565b600067ffffffffffffffff82111561274c5761274b6126b6565b5b602082029050602081019050919050565b600080fd5b600067ffffffffffffffff82111561277d5761277c6126b6565b5b61278682611fd2565b9050602081019050919050565b82818337600083830152505050565b60006127b56127b084612762565b612716565b9050828152602081018484840111156127d1576127d061275d565b5b6127dc848285612793565b509392505050565b600082601f8301126127f9576127f86121dc565b5b81356128098482602086016127a2565b91505092915050565b600061282561282084612731565b612716565b90508083825260208201905060208402830185811115612848576128476121e6565b5b835b8181101561288f57803567ffffffffffffffff81111561286d5761286c6121dc565b5b80860161287a89826127e4565b8552602085019450505060208101905061284a565b5050509392505050565b60006128a6368484612812565b905092915050565b60008190508160005260206000209050919050565b60006020601f8301049050919050565b600082821b905092915050565b6000600883026129107fffffffffffffffffffffffffffffffffffffffffffffffffffffffffffffffff826128d3565b61291a86836128d3565b95508019841693508086168417925050509392505050565b6000819050919050565b600061295761295261294d84611f58565b612932565b611f58565b9050919050565b6000819050919050565b6129718361293c565b61298561297d8261295e565b8484546128e0565b825550505050565b600090565b61299a61298d565b6129a5818484612968565b505050565b5b818110156129c9576129be600082612992565b6001810190506129ab565b5050565b601f821115612a0e576129df816128ae565b6129e8846128c3565b810160208510156129f7578190505b612a0b612a03856128c3565b8301826129aa565b50505b505050565b600082821c905092915050565b6000612a3160001984600802612a13565b1980831691505092915050565b6000612a4a8383612a20565b9150826002028217905092915050565b612a6382611f8c565b67ffffffffffffffff811115612a7c57612a7b6126b6565b5b612a868254612472565b612a918282856129cd565b600060209050601f831160018114612ac45760008415612ab2578287015190505b612abc8582612a3e565b865550612b24565b601f198416612ad2866128ae565b60005b82811015612afa57848901518255600182019150602085019450602081019050612ad5565b86831015612b175784890151612b13601f891682612a20565b8355505b6001600288020188555050505b505050505050565b7f4e487b7100000000000000000000000000000000000000000000000000000000600052603260045260246000fd5b6000612b6682611f58565b91507fffffffffffffffffffffffffffffffffffffffffffffffffffffffffffffffff8203612b9857612b9761250f565b5b600182019050919050565b7f45524332303a2064656372656173656420616c6c6f77616e63652062656c6f7760008201527f207a65726f000000000000000000000000000000000000000000000000000000602082015250565b6000612bff602583611f97565b9150612c0a82612ba3565b604082019050919050565b60006020820190508181036000830152612c2e81612bf2565b9050919050565b7f45524332303a20617070726f76652066726f6d20746865207a65726f2061646460008201527f7265737300000000000000000000000000000000000000000000000000000000602082015250565b6000612c91602483611f97565b9150612c9c82612c35565b604082019050919050565b60006020820190508181036000830152612cc081612c84565b9050919050565b7f45524332303a20617070726f766520746f20746865207a65726f20616464726560008201527f7373000000000000000000000000000000000000000000000000000000000000602082015250565b6000612d23602283611f97565b9150612d2e82612cc7565b604082019050919050565b60006020820190508181036000830152612d5281612d16565b9050919050565b7f45524332303a20696e73756666696369656e7420616c6c6f77616e6365000000600082015250565b6000612d8f601d83611f97565b9150612d9a82612d59565b602082019050919050565b60006020820190508181036000830152612dbe81612d82565b9050919050565b7f45524332303a207472616e736665722066726f6d20746865207a65726f20616460008201527f6472657373000000000000000000000000000000000000000000000000000000602082015250565b6000612e21602583611f97565b9150612e2c82612dc5565b604082019050919050565b60006020820190508181036000830152612e5081612e14565b9050919050565b7f45524332303a207472616e7366657220746f20746865207a65726f206164647260008201527f6573730000000000000000000000000000000000000000000000000000000000602082015250565b6000612eb3602383611f97565b9150612ebe82612e57565b604082019050919050565b60006020820190508181036000830152612ee281612ea6565b9050919050565b7f45524332303a207472616e7366657220616d6f756e742065786365656473206260008201527f616c616e63650000000000000000000000000000000000000000000000000000602082015250565b6000612f45602683611f97565b9150612f5082612ee9565b604082019050919050565b60006020820190508181036000830152612f7481612f38565b9050919050565b600081905092915050565b6000612f9182611f8c565b612f9b8185612f7b565b9350612fab818560208601611fa8565b80840191505092915050565b6000612fc38284612f86565b915081905092915050565b60008154612fdb81612472565b612fe58186612f7b565b94506001821660008114613000576001811461301557613048565b60ff1983168652811515820286019350613048565b61301e856128ae565b60005b8381101561304057815481890152600182019150602081019050613021565b838801955050505b50505092915050565b600061305d8284612fce565b915081905092915050565b7f496e76616c6964206e756d626572206f6620766f746500000000000000000000600082015250565b600061309e601683611f97565b91506130a982613068565b602082019050919050565b600060208201905081810360008301526130cd81613091565b9050919050565b7f496e76616c6964206d6f64656c20696e64657800000000000000000000000000600082015250565b600061310a601383611f97565b9150613115826130d4565b602082019050919050565b60006020820190508181036000830152613139816130fd565b9050919050565b600061314b82611f58565b915061315683611f58565b925082820390508181111561316e5761316d61250f565b5b92915050565b7f45524332303a206d696e7420746f20746865207a65726f206164647265737300600082015250565b60006131aa601f83611f97565b91506131b582613174565b602082019050919050565b600060208201905081810360008301526131d98161319d565b9050919050565b6000819050919050565b6131fb6131f682611f58565b6131e0565b82525050565b600061320d82856131ea565b60208201915061321d82846131ea565b6020820191508190509392505050565b7f4e487b7100000000000000000000000000000000000000000000000000000000600052601260045260246000fd5b600061326782611f58565b915061327283611f58565b9250826132825761328161322d565b5b828206905092915050565b600061329882611f58565b9150600082036132ab576132aa61250f565b5b60018203905091905056fea264697066735822122015d9fb831374a414a15f15bb9369737c2a624b26faa6d3bcc412e1a6b591b98d64736f6c63430008120033",
  "linkReferences": {},
  "deployedLinkReferences": {}
}